{"abi":[{"type":"constructor","inputs":[],"stateMutability":"nonpayable"},{"type":"function","name":"ADDRESS_ALL","inputs":[],"outputs":[{"name":"","type":"address","internalType":"address"}],"stateMutability":"view"},{"type":"function","name":"STRING_ALL","inputs":[],"outputs":[{"name":"","type":"string","internalType":"string"}],"stateMutability":"view"},{"type":"function","name":"activePermissions","inputs":[{"name":"","type":"address","internalType":"address"}],"outputs":[{"name":"","type":"uint256","internalType":"uint256"}],"stateMutability":"view"},{"type":"function","name":"addAllowedOperation","inputs":[{"name":"operation","type":"string","internalType":"string"}],"outputs":[{"name":"","type":"bool","internalType":"bool"}],"stateMutability":"nonpayable"},{"type":"function","name":"addRestrictedOperation","inputs":[{"name":"operation","type":"string","internalType":"string"}],"outputs":[{"name":"","type":"bool","internalType":"bool"}],"stateMutability":"nonpayable"},{"type":"function","name":"addressDefaultPermission","inputs":[],"outputs":[{"name":"","type":"bool","internalType":"bool"}],"stateMutability":"view"},{"type":"function","name":"allowedOperations","inputs":[{"name":"","type":"string","internalType":"string"}],"outputs":[{"name":"","type":"bool","internalType":"bool"}],"stateMutability":"view"},{"type":"function","name":"conditions","inputs":[{"name":"","type":"uint256","internalType":"uint256"}],"outputs":[{"name":"id","type":"uint256","internalType":"uint256"},{"name":"caller","type":"address","internalType":"address"},{"name":"operation","type":"string","internalType":"string"},{"name":"active","type":"bool","internalType":"bool"},{"name":"falseKey","type":"bool","internalType":"bool"},{"name":"trueKey","type":"bool","internalType":"bool"},{"name":"timestampBefore","type":"uint256","internalType":"uint256"},{"name":"timestampAfter","type":"uint256","internalType":"uint256"},{"name":"uintParameter","type":"uint256","internalType":"uint256"},{"name":"addressParameter","type":"address","internalType":"address"},{"name":"stringParameter","type":"string","internalType":"string"}],"stateMutability":"view"},{"type":"function","name":"createEvent","inputs":[{"name":"name","type":"string","internalType":"string"},{"name":"date","type":"uint256","internalType":"uint256"},{"name":"price","type":"tuple","internalType":"struct itUint64","components":[{"name":"ciphertext","type":"uint256","internalType":"ctUint64"},{"name":"signature","type":"bytes","internalType":"bytes"}]},{"name":"supply","type":"tuple","internalType":"struct itUint64","components":[{"name":"ciphertext","type":"uint256","internalType":"ctUint64"},{"name":"signature","type":"bytes","internalType":"bytes"}]},{"name":"resale","type":"bool","internalType":"bool"},{"name":"markup","type":"tuple","internalType":"struct itUint64","components":[{"name":"ciphertext","type":"uint256","internalType":"ctUint64"},{"name":"signature","type":"bytes","internalType":"bytes"}]}],"outputs":[],"stateMutability":"nonpayable"},{"type":"function","name":"events","inputs":[{"name":"","type":"uint256","internalType":"uint256"}],"outputs":[{"name":"id","type":"uint256","internalType":"uint256"},{"name":"org","type":"address","internalType":"address"},{"name":"name","type":"string","internalType":"string"},{"name":"date","type":"uint256","internalType":"uint256"},{"name":"price","type":"uint256","internalType":"ctUint64"},{"name":"supply","type":"uint256","internalType":"ctUint64"},{"name":"sold","type":"uint256","internalType":"ctUint64"},{"name":"resale","type":"bool","internalType":"bool"},{"name":"markup","type":"uint256","internalType":"ctUint64"}],"stateMutability":"view"},{"type":"function","name":"getConditions","inputs":[{"name":"startIdx","type":"uint256","internalType":"uint256"},{"name":"chunkSize","type":"uint256","internalType":"uint256"}],"outputs":[{"name":"","type":"tuple[]","internalType":"struct DataPrivacyFramework.Condition[]","components":[{"name":"id","type":"uint256","internalType":"uint256"},{"name":"caller","type":"address","internalType":"address"},{"name":"operation","type":"string","internalType":"string"},{"name":"active","type":"bool","internalType":"bool"},{"name":"falseKey","type":"bool","internalType":"bool"},{"name":"trueKey","type":"bool","internalType":"bool"},{"name":"timestampBefore","type":"uint256","internalType":"uint256"},{"name":"timestampAfter","type":"uint256","internalType":"uint256"},{"name":"uintParameter","type":"uint256","internalType":"uint256"},{"name":"addressParameter","type":"address","internalType":"address"},{"name":"stringParameter","type":"string","internalType":"string"}]}],"stateMutability":"view"},{"type":"function","name":"getConditionsCount","inputs":[],"outputs":[{"name":"","type":"uint256","internalType":"uint256"}],"stateMutability":"view"},{"type":"function","name":"getMyTicketIds","inputs":[],"outputs":[{"name":"","type":"uint256[]","internalType":"uint256[]"}],"stateMutability":"view"},{"type":"function","name":"getMyTicketPrice","inputs":[{"name":"tid","type":"uint256","internalType":"uint256"}],"outputs":[],"stateMutability":"nonpayable"},{"type":"function","name":"isOperationAllowed","inputs":[{"name":"caller","type":"address","internalType":"address"},{"name":"operation","type":"string","internalType":"string"},{"name":"uintParameter","type":"uint256","internalType":"uint256"}],"outputs":[{"name":"","type":"bool","internalType":"bool"}],"stateMutability":"view"},{"type":"function","name":"isOperationAllowed","inputs":[{"name":"caller","type":"address","internalType":"address"},{"name":"operation","type":"string","internalType":"string"}],"outputs":[{"name":"","type":"bool","internalType":"bool"}],"stateMutability":"view"},{"type":"function","name":"isOperationAllowed","inputs":[{"name":"caller","type":"address","internalType":"address"},{"name":"operation","type":"string","internalType":"string"},{"name":"stringParameter","type":"string","internalType":"string"}],"outputs":[{"name":"","type":"bool","internalType":"bool"}],"stateMutability":"view"},{"type":"function","name":"isOperationAllowed","inputs":[{"name":"caller","type":"address","internalType":"address"},{"name":"operation","type":"string","internalType":"string"},{"name":"addressParameter","type":"address","internalType":"address"}],"outputs":[{"name":"","type":"bool","internalType":"bool"}],"stateMutability":"view"},{"type":"function","name":"operationDefaultPermission","inputs":[],"outputs":[{"name":"","type":"bool","internalType":"bool"}],"stateMutability":"view"},{"type":"function","name":"permissions","inputs":[{"name":"","type":"address","internalType":"address"},{"name":"","type":"string","internalType":"string"}],"outputs":[{"name":"","type":"uint256","internalType":"uint256"}],"stateMutability":"view"},{"type":"function","name":"proveOwnership","inputs":[{"name":"tid","type":"uint256","internalType":"uint256"}],"outputs":[],"stateMutability":"nonpayable"},{"type":"function","name":"purchaseTicket","inputs":[{"name":"eventId","type":"uint256","internalType":"uint256"},{"name":"payment","type":"tuple","internalType":"struct itUint64","components":[{"name":"ciphertext","type":"uint256","internalType":"ctUint64"},{"name":"signature","type":"bytes","internalType":"bytes"}]}],"outputs":[],"stateMutability":"nonpayable"},{"type":"function","name":"removeAllowedOperation","inputs":[{"name":"operation","type":"string","internalType":"string"}],"outputs":[{"name":"","type":"bool","internalType":"bool"}],"stateMutability":"nonpayable"},{"type":"function","name":"removeRestrictedOperation","inputs":[{"name":"operation","type":"string","internalType":"string"}],"outputs":[{"name":"","type":"bool","internalType":"bool"}],"stateMutability":"nonpayable"},{"type":"function","name":"restrictedOperations","inputs":[{"name":"","type":"string","internalType":"string"}],"outputs":[{"name":"","type":"bool","internalType":"bool"}],"stateMutability":"view"},{"type":"function","name":"setAddressDefaultPermission","inputs":[{"name":"defaultPermission","type":"bool","internalType":"bool"}],"outputs":[{"name":"","type":"bool","internalType":"bool"}],"stateMutability":"nonpayable"},{"type":"function","name":"setOperationDefaultPermission","inputs":[{"name":"defaultPermission","type":"bool","internalType":"bool"}],"outputs":[{"name":"","type":"bool","internalType":"bool"}],"stateMutability":"nonpayable"},{"type":"function","name":"setPermission","inputs":[{"name":"inputData","type":"tuple","internalType":"struct DataPrivacyFramework.InputData","components":[{"name":"caller","type":"address","internalType":"address"},{"name":"operation","type":"string","internalType":"string"},{"name":"active","type":"bool","internalType":"bool"},{"name":"timestampBefore","type":"uint256","internalType":"uint256"},{"name":"timestampAfter","type":"uint256","internalType":"uint256"},{"name":"falseKey","type":"bool","internalType":"bool"},{"name":"trueKey","type":"bool","internalType":"bool"},{"name":"uintParameter","type":"uint256","internalType":"uint256"},{"name":"addressParameter","type":"address","internalType":"address"},{"name":"stringParameter","type":"string","internalType":"string"}]}],"outputs":[{"name":"","type":"bool","internalType":"bool"}],"stateMutability":"nonpayable"},{"type":"function","name":"tickets","inputs":[{"name":"","type":"uint256","internalType":"uint256"}],"outputs":[{"name":"id","type":"uint256","internalType":"uint256"},{"name":"eventId","type":"uint256","internalType":"uint256"},{"name":"owner","type":"address","internalType":"address"},{"name":"paidPrice","type":"uint256","internalType":"ctUint64"}],"stateMutability":"view"},{"type":"function","name":"transferTicket","inputs":[{"name":"tid","type":"uint256","internalType":"uint256"},{"name":"to","type":"address","internalType":"address"}],"outputs":[],"stateMutability":"nonpayable"},{"type":"event","name":"EncryptedValueForUser","inputs":[{"name":"user","type":"address","indexed":true,"internalType":"address"},{"name":"value","type":"uint256","indexed":false,"internalType":"ctUint64"}],"anonymous":false},{"type":"event","name":"EventCreated","inputs":[{"name":"eventId","type":"uint256","indexed":true,"internalType":"uint256"},{"name":"organizer","type":"address","indexed":true,"internalType":"address"},{"name":"name","type":"string","indexed":false,"internalType":"string"}],"anonymous":false},{"type":"event","name":"OwnershipProof","inputs":[{"name":"ticketId","type":"uint256","indexed":true,"internalType":"uint256"},{"name":"owner","type":"address","indexed":true,"internalType":"address"},{"name":"encryptedProof","type":"uint256","indexed":false,"internalType":"ctUint64"}],"anonymous":false},{"type":"event","name":"TicketPurchased","inputs":[{"name":"ticketId","type":"uint256","indexed":true,"internalType":"uint256"},{"name":"eventId","type":"uint256","indexed":true,"internalType":"uint256"},{"name":"owner","type":"address","indexed":true,"internalType":"address"}],"anonymous":false},{"type":"event","name":"TicketTransferred","inputs":[{"name":"ticketId","type":"uint256","indexed":true,"internalType":"uint256"},{"name":"from","type":"address","indexed":true,"internalType":"address"},{"name":"to","type":"address","indexed":true,"internalType":"address"}],"anonymous":false}],"bytecode":{"object":"0x608060405260016005553480156200001657600080fd5b506000805461ffff191681556040516430b236b4b760d91b815281908190819060019081906005019081526040805160209281900383018120805460ff1916941515949094179093556101408301815233835280518082018252600581526430b236b4b760d91b81840152828401526001838201526000606084018190526080840181905260a0840181905260c0840181905260e08401819052610100840181905281519283019091528152610120820152620000d39062000242565b506040805180820182526001808252601560f91b602083015291518291620000fb916200063e565b9081526040805160209281900383018120805460ff19169415159490941790935561014083018152600180845281518083018352818152601560f91b8185015283850152838201526000606084018190526080840181905260a0840181905260c0840181905260e084018190526101008401819052815192830190915281526101208201526200018b9062000242565b50505050506200023b604051806101400160405280336001600160a01b031681526020016040518060400160405280600f81526020016e1bdc17d8dc99585d1957d95d995b9d608a1b815250815260200160011515815260200160008152602001600081526020016000151581526020016000151581526020016000815260200160006001600160a01b03168152602001604051806020016040528060008152508152506200024260201b60201c565b506200082c565b80516001600160a01b031660009081526004602090815260408083209184015190516200027091906200063e565b908152602001604051809103902054600003620004ab5760055482516001600160a01b03166000908152600460209081526040918290209085015191519091620002ba916200063e565b908152602001604051809103902081905550604051806101600160405280600554815260200183600001516001600160a01b03168152602001836020015181526020018360400151151581526020018360a00151151581526020018360c001511515815260200183606001518152602001836080015181526020018360e0015181526020018361010001516001600160a01b031681526020018361012001518152506006600060055481526020019081526020016000206000820151816000015560208201518160010160006101000a8154816001600160a01b0302191690836001600160a01b031602179055506040820151816002019081620003bf919062000714565b506060820151600382018054608085015160a086015161ffff1990921693151561ff0019169390931761010093151584021762ff00001916620100009115159190910217905560c0830151600483015560e0830151600583015582015160068201556101208201516007820180546001600160a01b0319166001600160a01b0390921691909117905561014082015160088201906200045f908262000714565b509050506005600081546200047490620007f6565b9091555081516001600160a01b031660009081526003602052604081208054909190620004a190620007f6565b9091555062000636565b81516001600160a01b0316600090815260046020908152604080832091850151905160069284929091620004e091906200063e565b9081526020016040518091039020548152602001908152602001600020905082604001518015620005165750600381015460ff16155b156200054a5782516001600160a01b0316600090815260036020526040812080549091906200054590620007f6565b909155505b8260400151158015620005615750600381015460ff165b15620005955782516001600160a01b031660009081526003602052604081208054909190620005909062000812565b909155505b6040830151600382018054606086015160048501556080860151600585015560a086015160c087015161ffff1990921693151561ff0019169390931761010093151584021762ff00001916620100009115159190910217905560e084015160068301558301516007820180546001600160a01b0319166001600160a01b03909216919091179055610120830151600882019062000633908262000714565b50505b506001919050565b6000825160005b8181101562000661576020818601810151858301520162000645565b506000920191825250919050565b634e487b7160e01b600052604160045260246000fd5b600181811c908216806200069a57607f821691505b602082108103620006bb57634e487b7160e01b600052602260045260246000fd5b50919050565b601f8211156200070f57600081815260208120601f850160051c81016020861015620006ea5750805b601f850160051c820191505b818110156200070b57828155600101620006f6565b5050505b505050565b81516001600160401b038111156200073057620007306200066f565b620007488162000741845462000685565b84620006c1565b602080601f831160018114620007805760008415620007675750858301515b600019600386901b1c1916600185901b1785556200070b565b600085815260208120601f198616915b82811015620007b15788860151825594840194600190910190840162000790565b5085821015620007d05787850151600019600388901b60f8161c191681555b5050505050600190811b01905550565b634e487b7160e01b600052601160045260246000fd5b6000600182016200080b576200080b620007e0565b5060010190565b600081620008245762000824620007e0565b506000190190565b613651806200083c6000396000f3fe608060405234801561001057600080fd5b506004361061016a5760003560e01c80630b7914301461016f57806326c50007146101a057806334906a4a146101ca578063372db08914610208578063476a95ad1461021b57806350b447121461022e57806365c581521461029e57806366195701146102b1578063679ebf1a146102c7578063699d7c33146102dc57806382dab96e146102ef5780638fb009d3146103025780639359c28714610317578063a5fcf1621461032a578063a74d343914610337578063a7804d651461034a578063ade0bee41461036a578063c6064b281461037d578063c8d757fd14610390578063cd5468a7146103cc578063cec21504146103df578063e83627fa146103f2578063efdcec9c14610405578063f091c37514610432578063f28b9f3414610445578063f558936414610457578063f9529ee214610485578063fa1b3cac14610498578063fac66f01146104b8578063fb83bb73146104d8575b600080fd5b61018261017d36600461289d565b6104eb565b60405161019799989796959493929190612913565b60405180910390f35b6101b36101ae36600461289d565b6105ca565b6040516101979b9a99989796959493929190612975565b6101f86101d8366004612ad1565b805160208183018101805160018252928201919093012091525460ff1681565b6040519015158152602001610197565b6101f8610216366004612b69565b61074d565b6101f8610229366004612bde565b610778565b61026f61023c36600461289d565b6008602052600090815260409020805460018201546002830154600390930154919290916001600160a01b039091169084565b604051610197949392919093845260208401929092526001600160a01b03166040830152606082015260800190565b6101f86102ac366004612ad1565b6107c3565b6102b9610879565b604051908152602001610197565b6102da6102d5366004612bfb565b61088f565b005b6101f86102ea366004612c27565b610a54565b6101f86102fd366004612c79565b610a7e565b61030a610e60565b6040516101979190612d82565b6101f8610325366004612ad1565b610ec1565b6000546101f89060ff1681565b6101f8610345366004612dc6565b610f44565b6102b9610358366004612e46565b60036020526000908152604090205481565b6101f8610378366004612bde565b610f97565b6101f861038b366004612e61565b610fe9565b6102b961039e366004612ec5565b6004602090815260009283526040909220815180830184018051928152908401929093019190912091525481565b6102da6103da366004612f2a565b61100b565b6102da6103ed36600461289d565b611430565b6102da61040036600461289d565b6114cb565b610425604051806040016040528060018152602001601560f91b81525081565b6040516101979190612fef565b6102da610440366004613002565b611548565b6000546101f890610100900460ff1681565b6101f8610465366004612ad1565b805160208183018101805160028252928201919093012091525460ff1681565b6101f861049336600461303e565b611939565b6104a0600181565b6040516001600160a01b039091168152602001610197565b6104cb6104c636600461307f565b6119e7565b60405161019791906130a1565b6101f86104e636600461303e565b611d65565b60076020526000908152604090208054600182015460028301805492936001600160a01b039092169261051d906131a9565b80601f0160208091040260200160405190810160405280929190818152602001828054610549906131a9565b80156105965780601f1061056b57610100808354040283529160200191610596565b820191906000526020600020905b81548152906001019060200180831161057957829003601f168201915b50505060038401546004850154600586015460068701546007880154600890980154969793969295509093509160ff169089565b60066020526000908152604090208054600182015460028301805492936001600160a01b03909216926105fc906131a9565b80601f0160208091040260200160405190810160405280929190818152602001828054610628906131a9565b80156106755780601f1061064a57610100808354040283529160200191610675565b820191906000526020600020905b81548152906001019060200180831161065857829003601f168201915b5050505060038301546004840154600585015460068601546007870154600888018054979860ff808816996101008904821699506201000090980416966001600160a01b03909316929091906106ca906131a9565b80601f01602080910402602001604051908101604052809291908181526020018280546106f6906131a9565b80156107435780601f1061071857610100808354040283529160200191610743565b820191906000526020600020905b81548152906001019060200180831161072657829003601f168201915b505050505090508b565b600061076f858585600186600060405180602001604052806000815250611dec565b95945050505050565b6000805482151560ff9091161515036107ac5760405162461bcd60e51b81526004016107a3906131dd565b60405180910390fd5b506000805460ff1916911515919091179055600190565b60006002826040516107d59190613214565b9081526040519081900360200190205460ff161561083f5760405162461bcd60e51b815260206004820152602160248201527f4450463a204f5045524154494f4e5f414c52454144595f5245535452494354456044820152601160fa1b60648201526084016107a3565b60016002836040516108519190613214565b908152604051908190036020019020805491151560ff19909216919091179055506001919050565b6000600160055461088a9190613246565b905090565b6000828152600860205260409020600201546001600160a01b031633146108c85760405162461bcd60e51b81526004016107a390613259565b6001600160a01b0381166109035760405162461bcd60e51b8152602060048201526002602482015261494160f01b60448201526064016107a3565b600082815260086020908152604080832060020180546001600160a01b0319166001600160a01b038616179055338084526009909252822090915b81548110156109f2578482828154811061095a5761095a613275565b9060005260206000200154036109e0578154829061097a90600190613246565b8154811061098a5761098a613275565b90600052602060002001548282815481106109a7576109a7613275565b9060005260206000200181905550818054806109c5576109c561328b565b600190038181906000526020600020016000905590556109f2565b806109ea816132a1565b91505061093e565b506001600160a01b038084166000818152600960209081526040808320805460018101825590845291832090910188905551919285169187917fd15524263ae66f75c1e604c47db6085085110f23ef7322b355179ac5e3b0783a91a450505050565b6000610a76848484600080600060405180602001604052806000815250611dec565b949350505050565b80516001600160a01b03166000908152600460209081526040808320918401519051610aaa9190613214565b908152602001604051809103902054600003610cd95760055482516001600160a01b03166000908152600460209081526040918290209085015191519091610af191613214565b908152602001604051809103902081905550604051806101600160405280600554815260200183600001516001600160a01b03168152602001836020015181526020018360400151151581526020018360a00151151581526020018360c001511515815260200183606001518152602001836080015181526020018360e0015181526020018361010001516001600160a01b031681526020018361012001518152506006600060055481526020019081526020016000206000820151816000015560208201518160010160006101000a8154816001600160a01b0302191690836001600160a01b031602179055506040820151816002019081610bf49190613309565b506060820151600382018054608085015160a086015161ffff1990921693151561ff0019169390931761010093151584021762ff00001916620100009115159190910217905560c0830151600483015560e0830151600583015582015160068201556101208201516007820180546001600160a01b0319166001600160a01b039092169190911790556101408201516008820190610c929082613309565b50905050600560008154610ca5906132a1565b9091555081516001600160a01b031660009081526003602052604081208054909190610cd0906132a1565b90915550610e58565b81516001600160a01b0316600090815260046020908152604080832091850151905160069284929091610d0c9190613214565b9081526020016040518091039020548152602001908152602001600020905082604001518015610d415750600381015460ff16155b15610d725782516001600160a01b031660009081526003602052604081208054909190610d6d906132a1565b909155505b8260400151158015610d885750600381015460ff165b15610db95782516001600160a01b031660009081526003602052604081208054909190610db4906133c8565b909155505b6040830151600382018054606086015160048501556080860151600585015560a086015160c087015161ffff1990921693151561ff0019169390931761010093151584021762ff00001916620100009115159190910217905560e084015160068301558301516007820180546001600160a01b0319166001600160a01b039092169190911790556101208301516008820190610e559082613309565b50505b506001919050565b33600090815260096020908152604091829020805483518184028101840190945280845260609392830182828015610eb757602002820191906000526020600020905b815481526020019060010190808311610ea3575b5050505050905090565b6000600182604051610ed39190613214565b9081526040519081900360200190205460ff1615610f335760405162461bcd60e51b815260206004820152601e60248201527f4450463a204f5045524154494f4e5f414c52454144595f414c4c4f574544000060448201526064016107a3565b600180836040516108519190613214565b6000610f8d868686600360008089898080601f016020809104026020016040519081016040528093929190818152602001838380828437600092019190915250611dec92505050565b9695505050505050565b6000811515600060019054906101000a900460ff16151503610fcb5760405162461bcd60e51b81526004016107a3906131dd565b50600080549115156101000261ff0019909216919091179055600190565b600061076f858585600260008760405180602001604052806000815250611dec565b6040518060400160405280600f81526020016e1bdc17d8dc99585d1957d95d995b9d608a1b81525060008060405180602001604052806000815250826000146110d75760405163372db08960e01b8152309063372db08990611075903390889088906004016133df565b602060405180830381865afa158015611092573d6000803e3d6000fd5b505050506040513d601f19601f820116820180604052508101906110b69190613413565b6110d25760405162461bcd60e51b81526004016107a390613430565b6111f1565b6001600160a01b0382161561110d576040516318c0c96560e31b8152309063c6064b28906110759033908890879060040161345d565b604080516000815260208101808352815190209161112d91849101613214565b604051602081830303815290604052805190602001201461116f5760405163a74d343960e01b8152309063a74d34399061107590339088908690600401613492565b60405163699d7c3360e01b8152309063699d7c339061119490339088906004016134c8565b602060405180830381865afa1580156111b1573d6000803e3d6000fd5b505050506040513d601f19601f820116820180604052508101906111d59190613413565b6111f15760405162461bcd60e51b81526004016107a390613430565b6000600a60008154611202906132a1565b9190508190559050604051806101200160405280828152602001336001600160a01b031681526020018c81526020018b815260200161125161124c8c611247906134ec565b61235c565b6123d3565b815260200161126561124c6112478c6134ec565b815260200161127761124c6000612400565b8152881515602082015260400161129361124c6112478a6134ec565b905260008281526007602090815260409182902083518155908301516001820180546001600160a01b0319166001600160a01b039092169190911790559082015160028201906112e39082613309565b50606082015181600301556080820151816004015560a0820151816005015560c0820151816006015560e08201518160070160006101000a81548160ff02191690831515021790555061010082015181600801559050506113e060405180610140016040528060006001600160a01b03168152602001604051806040016040528060128152602001711bdc17dc1d5c98da185cd957dd1a58dad95d60721b8152508152602001600115158152602001600081526020016000815260200160011515815260200160001515815260200183815260200160006001600160a01b0316815260200160405180602001604052806000815250815250610a7e565b50336001600160a01b0316817ffc695dea2478fb938a11068aeedddd7046a5fe655f136e30a325d353fe187a458d60405161141b9190612fef565b60405180910390a35050505050505050505050565b6000818152600860205260409020600201546001600160a01b031633146114695760405162461bcd60e51b81526004016107a390613259565b6000818152600860205260408120600301549061148e61148883612436565b33612446565b60405181815290915033907f978b13d800eb238cb17d97d7a54f23297f312322f36b0f7e9d2096abce23df2b9060200160405180910390a2505050565b6000818152600860205260409020600201546001600160a01b031633146115045760405162461bcd60e51b81526004016107a390613259565b33817f46def9bc9f2f486533da902625b44be71e5647af0c645e42ec64466c8d41831761153461124c6001612400565b60405190815260200160405180910390a350565b604051806040016040528060128152602001711bdc17dc1d5c98da185cd957dd1a58dad95d60721b81525082600060405180602001604052806000815250826000146116175760405163372db08960e01b8152309063372db089906115b5903390889088906004016133df565b602060405180830381865afa1580156115d2573d6000803e3d6000fd5b505050506040513d601f19601f820116820180604052508101906115f69190613413565b6116125760405162461bcd60e51b81526004016107a390613430565b611731565b6001600160a01b0382161561164d576040516318c0c96560e31b8152309063c6064b28906115b59033908890879060040161345d565b604080516000815260208101808352815190209161166d91849101613214565b60405160208183030381529060405280519060200120146116af5760405163a74d343960e01b8152309063a74d3439906115b590339088908690600401613492565b60405163699d7c3360e01b8152309063699d7c33906116d490339088906004016134c8565b602060405180830381865afa1580156116f1573d6000803e3d6000fd5b505050506040513d601f19601f820116820180604052508101906117159190613413565b6117315760405162461bcd60e51b81526004016107a390613430565b60008681526007602052604081205490036117735760405162461bcd60e51b8152602060048201526002602482015261272360f11b60448201526064016107a3565b600061178461124c611247886134ec565b600088815260076020526040812060060154919250906117a390612436565b600089815260076020526040812060050154919250906117c290612436565b905060006117d083836124e5565b90506117f76117f2826117e36001612400565b6117ed6000612400565b612535565b6125ca565b6001600160401b03166001146118345760405162461bcd60e51b81526020600482015260026024820152614e4160f01b60448201526064016107a3565b6000600b60008154611845906132a1565b91829055506040805160808101825282815260208082018f815233838501818152606085018c815260008881526008865287812096518755935160018088019190915591516002870180546001600160a01b0319166001600160a01b03909216919091179055516003909501949094558152600982529283208054808401825590845292209091018290559091506118eb9061124c9086906118e690612400565b6125da565b60008c81526007602052604080822060060192909255905133918d9184917f94c5953e15f54d38b82a662bdd5739fc91af3a23d3ef7e67269dfaeee71a813c91a45050505050505050505050565b60006001838360405161194d92919061356a565b9081526040519081900360200190205460ff166119a95760405162461bcd60e51b815260206004820152601a6024820152791114118e8813d4115490551253d397d393d517d0531313d5d15160321b60448201526064016107a3565b6000600184846040516119bd92919061356a565b908152604051908190036020019020805491151560ff199092169190911790555060015b92915050565b606060008311611a2f5760405162461bcd60e51b81526020600482015260136024820152724450463a2053544152545f4944585f5a45524f60681b60448201526064016107a3565b60008211611a765760405162461bcd60e51b81526020600482015260146024820152734450463a204348554e4b5f53495a455f5a45524f60601b60448201526064016107a3565b6005548310611ab8576040805160008082526020820190925290611ab0565b611a9d61282b565b815260200190600190039081611a955790505b5090506119e1565b60006001600554611ac99190613246565b6001611ad5858761357a565b611adf9190613246565b1115611af85783600554611af39190613246565b611afa565b825b90506000816001600160401b03811115611b1657611b166129fd565b604051908082528060200260200182016040528015611b4f57816020015b611b3c61282b565b815260200190600190039081611b345790505b50905060005b82811015611d5c5760066000611b6b838961357a565b815260208082019290925260409081016000208151610160810183528154815260018201546001600160a01b0316938101939093526002810180549192840191611bb4906131a9565b80601f0160208091040260200160405190810160405280929190818152602001828054611be0906131a9565b8015611c2d5780601f10611c0257610100808354040283529160200191611c2d565b820191906000526020600020905b815481529060010190602001808311611c1057829003601f168201915b5050509183525050600382015460ff8082161515602084015261010080830482161515604085015262010000909204161515606083015260048301546080830152600583015460a0830152600683015460c083015260078301546001600160a01b031660e0830152600883018054919092019190611caa906131a9565b80601f0160208091040260200160405190810160405280929190818152602001828054611cd6906131a9565b8015611d235780601f10611cf857610100808354040283529160200191611d23565b820191906000526020600020905b815481529060010190602001808311611d0657829003601f168201915b505050505081525050828281518110611d3e57611d3e613275565b60200260200101819052508080611d54906132a1565b915050611b55565b50949350505050565b600060028383604051611d7992919061356a565b9081526040519081900360200190205460ff16611dd85760405162461bcd60e51b815260206004820152601d60248201527f4450463a204f5045524154494f4e5f4e4f545f5245535452494354454400000060448201526064016107a3565b6000600284846040516119bd92919061356a565b600060028787604051611e0092919061356a565b9081526040519081900360200190205460ff1615611e2057506000612351565b6040805180820182526001808252601560f91b60208301529151611e449190613214565b9081526040519081900360200190205460ff16158015611e86575060018787604051611e7192919061356a565b9081526040519081900360200190205460ff16155b15611e9357506000612351565b6001600160a01b03881660009081526004602052604080822090516006929190611ec0908b908b9061356a565b908152604080516020928190038301902054835290820192909252016000206003015460ff1615612116576001600160a01b038816600090815260046020526040808220905161210f926006929091611f1c908c908c9061356a565b908152602001604051809103902054815260200190815260200160002060405180610160016040529081600082015481526020016001820160009054906101000a90046001600160a01b03166001600160a01b03166001600160a01b03168152602001600282018054611f8e906131a9565b80601f0160208091040260200160405190810160405280929190818152602001828054611fba906131a9565b80156120075780601f10611fdc57610100808354040283529160200191612007565b820191906000526020600020905b815481529060010190602001808311611fea57829003601f168201915b5050509183525050600382015460ff8082161515602084015261010080830482161515604085015262010000909204161515606083015260048301546080830152600583015460a0830152600683015460c083015260078301546001600160a01b031660e0830152600883018054919092019190612084906131a9565b80601f01602080910402602001604051908101604052809291908181526020018280546120b0906131a9565b80156120fd5780601f106120d2576101008083540402835291602001916120fd565b820191906000526020600020905b8154815290600101906020018083116120e057829003601f168201915b505050505081525050868686866125ef565b9050612351565b6001600160a01b03881660009081526004602090815260408083208151808301835260018152601560f91b9381019390935290516006939261215791613214565b908152604080516020928190038301902054835290820192909252016000206003015460ff16156121d55761210f60066000600460008c6001600160a01b03166001600160a01b03168152602001908152602001600020604051806040016040528060018152602001601560f91b815250604051611f1c9190613214565b6001600160a01b038816600090815260036020526040902054156122045750600054610100900460ff16612351565b600160009081526004602052604051600691906000805160206135fc83398151915290612234908b908b9061356a565b908152604080516020928190038301902054835290820192909252016000206003015460ff16156122925760016000908152600460205260405161210f916006916000805160206135fc83398151915290611f1c908c908c9061356a565b6001600081815260046020908152604080518082018252938452601560f91b91840191909152516006926000805160206135fc833981519152916122d69190613214565b908152604080516020928190038301902054835290820192909252016000206003015460ff1615612349576001600081815260046020908152604080518082018252938452601560f91b918401919091525161210f92600692916000805160206135fc83398151915291611f1c91613214565b5060005460ff165b979650505050505050565b80516020820151604051630e4f36e160e41b815260009260649263e4f36e109261239092600160fa1b9290916004016135a3565b6020604051808303816000875af11580156123af573d6000803e3d6000fd5b505050506040513d601f19601f820116820180604052508101906119e191906135c8565b6000606463c50c9c0260045b60f81b846040518363ffffffff1660e01b81526004016123909291906135e1565b6040516306cdb05b60e51b815260009060649063d9b60b609061239090600160fa1b906001600160401b038716906004016135e1565b6000606463d2c135e560046123df565b60408051606083901b6001600160601b031916602082015281516014818303018152603482019283905263078de1cd60e31b909252600091606491633c6f0e689161249b91600160fa1b9188916038016135a3565b6020604051808303816000875af11580156124ba573d6000803e3d6000fd5b505050506040513d601f19601f820116820180604052508101906124de91906135c8565b9392505050565b6000606463dd1486936124fa600480856127ce565b6040516001600160e01b031960e084901b1681526001600160e81b03199091166004820152602481018690526044810185905260640161249b565b600060646320cc408d61254a600480856127ce565b6040516001600160e01b031960e084901b1681526001600160e81b031990911660048201526024810187905260448101869052606481018590526084016020604051808303816000875af11580156125a6573d6000803e3d6000fd5b505050506040513d601f19601f82011682018060405250810190610a7691906135c8565b60006064630cfed56160046123df565b60006064638c5d01506124fa600480856127ce565b60008560800151156126035750600061076f565b8560a00151156126155750600161076f565b60008660c0015111801561262c5750428660c00151105b156126395750600061076f565b60008660e001511180156126505750428660e00151115b1561265d5750600061076f565b60018560038111156126715761267161358d565b148015612682575061010086015115155b801561269357508386610100015114155b156126a05750600061076f565b60028560038111156126b4576126b461358d565b1480156126ce57506101208601516001600160a01b031615155b80156126f15750826001600160a01b03168661012001516001600160a01b031614155b156126fe5750600061076f565b60038560038111156127125761271261358d565b148015612758575060408051600081526020810180835281519020610140890151909261273f9201613214565b6040516020818303038152906040528051906020012014155b80156127b55750816040516020016127709190613214565b6040516020818303038152906040528051906020012086610140015160405160200161279c9190613214565b6040516020818303038152906040528051906020012014155b156127c25750600061076f565b50600195945050505050565b60008160028111156127e2576127e261358d565b60ff1660088460048111156127f9576127f961358d565b61ffff16901b61ffff1660108660048111156128175761281761358d565b62ffffff16901b171760e81b949350505050565b6040518061016001604052806000815260200160006001600160a01b031681526020016060815260200160001515815260200160001515815260200160001515815260200160008152602001600081526020016000815260200160006001600160a01b03168152602001606081525090565b6000602082840312156128af57600080fd5b5035919050565b6001600160a01b03169052565b60005b838110156128de5781810151838201526020016128c6565b50506000910152565b600081518084526128ff8160208601602086016128c3565b601f01601f19169290920160200192915050565b8981526001600160a01b03891660208201526101206040820181905260009061293e8382018b6128e7565b60608401999099525050608081019590955260a085019390935260c0840191909152151560e0830152610100909101529392505050565b8b81526001600160a01b038b81166020830152610160604083018190526000916129a18483018e6128e7565b91508b151560608501528a1515608085015289151560a08501528860c08501528760e085015286610100850152808616610120850152508281036101408401526129eb81856128e7565b9e9d5050505050505050505050505050565b634e487b7160e01b600052604160045260246000fd5b60405161014081016001600160401b0381118282101715612a3657612a366129fd565b60405290565b60006001600160401b0380841115612a5657612a566129fd565b604051601f8501601f19908116603f01168101908282118183101715612a7e57612a7e6129fd565b81604052809350858152868686011115612a9757600080fd5b858560208301376000602087830101525050509392505050565b600082601f830112612ac257600080fd5b6124de83833560208501612a3c565b600060208284031215612ae357600080fd5b81356001600160401b03811115612af957600080fd5b610a7684828501612ab1565b80356001600160a01b0381168114612b1c57600080fd5b919050565b60008083601f840112612b3357600080fd5b5081356001600160401b03811115612b4a57600080fd5b602083019150836020828501011115612b6257600080fd5b9250929050565b60008060008060608587031215612b7f57600080fd5b612b8885612b05565b935060208501356001600160401b03811115612ba357600080fd5b612baf87828801612b21565b9598909750949560400135949350505050565b8015158114612bd057600080fd5b50565b8035612b1c81612bc2565b600060208284031215612bf057600080fd5b81356124de81612bc2565b60008060408385031215612c0e57600080fd5b82359150612c1e60208401612b05565b90509250929050565b600080600060408486031215612c3c57600080fd5b612c4584612b05565b925060208401356001600160401b03811115612c6057600080fd5b612c6c86828701612b21565b9497909650939450505050565b600060208284031215612c8b57600080fd5b81356001600160401b0380821115612ca257600080fd5b908301906101408286031215612cb757600080fd5b612cbf612a13565b612cc883612b05565b8152602083013582811115612cdc57600080fd5b612ce887828601612ab1565b602083015250612cfa60408401612bd3565b60408201526060830135606082015260808301356080820152612d1f60a08401612bd3565b60a0820152612d3060c08401612bd3565b60c082015260e083013560e0820152610100612d4d818501612b05565b908201526101208381013583811115612d6557600080fd5b612d7188828701612ab1565b918301919091525095945050505050565b6020808252825182820181905260009190848201906040850190845b81811015612dba57835183529284019291840191600101612d9e565b50909695505050505050565b600080600080600060608688031215612dde57600080fd5b612de786612b05565b945060208601356001600160401b0380821115612e0357600080fd5b612e0f89838a01612b21565b90965094506040880135915080821115612e2857600080fd5b50612e3588828901612b21565b969995985093965092949392505050565b600060208284031215612e5857600080fd5b6124de82612b05565b60008060008060608587031215612e7757600080fd5b612e8085612b05565b935060208501356001600160401b03811115612e9b57600080fd5b612ea787828801612b21565b9094509250612eba905060408601612b05565b905092959194509250565b60008060408385031215612ed857600080fd5b612ee183612b05565b915060208301356001600160401b03811115612efc57600080fd5b612f0885828601612ab1565b9150509250929050565b600060408284031215612f2457600080fd5b50919050565b60008060008060008060c08789031215612f4357600080fd5b86356001600160401b0380821115612f5a57600080fd5b612f668a838b01612ab1565b9750602089013596506040890135915080821115612f8357600080fd5b612f8f8a838b01612f12565b95506060890135915080821115612fa557600080fd5b612fb18a838b01612f12565b9450612fbf60808a01612bd3565b935060a0890135915080821115612fd557600080fd5b50612fe289828a01612f12565b9150509295509295509295565b6020815260006124de60208301846128e7565b6000806040838503121561301557600080fd5b8235915060208301356001600160401b0381111561303257600080fd5b612f0885828601612f12565b6000806020838503121561305157600080fd5b82356001600160401b0381111561306757600080fd5b61307385828601612b21565b90969095509350505050565b6000806040838503121561309257600080fd5b50508035926020909101359150565b60006020808301818452808551808352604092508286019150828160051b87010184880160005b8381101561319b57603f19898403018552815161016081518552888201516130f28a8701826128b6565b50878201518189870152613108828701826128e7565b91505060608083015161311e8288018215159052565b505060808281015115159086015260a08083015115159086015260c0808301519086015260e0808301519086015261010080830151908601526101208083015161316a828801826128b6565b5050610140808301519250858203818701525061318781836128e7565b9689019694505050908601906001016130c8565b509098975050505050505050565b600181811c908216806131bd57607f821691505b602082108103612f2457634e487b7160e01b600052602260045260246000fd5b6020808252601e908201527f4450463a20494e56414c49445f5045524d495353494f4e5f4348414e47450000604082015260600190565b600082516132268184602087016128c3565b9190910192915050565b634e487b7160e01b600052601160045260246000fd5b818103818111156119e1576119e1613230565b6020808252600290820152614e4f60f01b604082015260600190565b634e487b7160e01b600052603260045260246000fd5b634e487b7160e01b600052603160045260246000fd5b6000600182016132b3576132b3613230565b5060010190565b601f82111561330457600081815260208120601f850160051c810160208610156132e15750805b601f850160051c820191505b81811015613300578281556001016132ed565b5050505b505050565b81516001600160401b03811115613322576133226129fd565b6133368161333084546131a9565b846132ba565b602080601f83116001811461336b57600084156133535750858301515b600019600386901b1c1916600185901b178555613300565b600085815260208120601f198616915b8281101561339a5788860151825594840194600190910190840161337b565b50858210156133b85787850151600019600388901b60f8161c191681555b5050505050600190811b01905550565b6000816133d7576133d7613230565b506000190190565b6001600160a01b0384168152606060208201819052600090613403908301856128e7565b9050826040830152949350505050565b60006020828403121561342557600080fd5b81516124de81612bc2565b6020808252601390820152724450463a204e6f205065726d697373696f6e2160681b604082015260600190565b600060018060a01b0380861683526060602084015261347f60608401866128e7565b9150808416604084015250949350505050565b6001600160a01b03841681526060602082018190526000906134b6908301856128e7565b8281036040840152610f8d81856128e7565b6001600160a01b0383168152604060208201819052600090610a76908301846128e7565b6000604082360312156134fe57600080fd5b604080519081016001600160401b038082118383101715613521576135216129fd565b8160405284358352602085013591508082111561353d57600080fd5b50830136601f82011261354f57600080fd5b61355e36823560208401612a3c565b60208301525092915050565b8183823760009101908152919050565b808201808211156119e1576119e1613230565b634e487b7160e01b600052602160045260246000fd5b60ff60f81b8416815282602082015260606040820152600061076f60608301846128e7565b6000602082840312156135da57600080fd5b5051919050565b6001600160f81b031992909216825260208201526040019056feabd6e7cb50984ff9c2f3e18a2660c3353dadf4e3291deeb275dae2cd1e44fe05a2646970667358221220b7fdda67efc70975be42ba55fa7d9b467a583e609a46093761cfc12833a933f864736f6c63430008130033","linkReferences":{}},"methodIdentifiers":{"ADDRESS_ALL()":"fa1b3cac","STRING_ALL()":"efdcec9c","activePermissions(address)":"a7804d65","addAllowedOperation(string)":"9359c287","addRestrictedOperation(string)":"65c58152","addressDefaultPermission()":"a5fcf162","allowedOperations(string)":"34906a4a","conditions(uint256)":"26c50007","createEvent(string,uint256,(uint256,bytes),(uint256,bytes),bool,(uint256,bytes))":"cd5468a7","events(uint256)":"0b791430","getConditions(uint256,uint256)":"fac66f01","getConditionsCount()":"66195701","getMyTicketIds()":"8fb009d3","getMyTicketPrice(uint256)":"cec21504","isOperationAllowed(address,string)":"699d7c33","isOperationAllowed(address,string,address)":"c6064b28","isOperationAllowed(address,string,string)":"a74d3439","isOperationAllowed(address,string,uint256)":"372db089","operationDefaultPermission()":"f28b9f34","permissions(address,string)":"c8d757fd","proveOwnership(uint256)":"e83627fa","purchaseTicket(uint256,(uint256,bytes))":"f091c375","removeAllowedOperation(string)":"f9529ee2","removeRestrictedOperation(string)":"fb83bb73","restrictedOperations(string)":"f5589364","setAddressDefaultPermission(bool)":"476a95ad","setOperationDefaultPermission(bool)":"ade0bee4","setPermission((address,string,bool,uint256,uint256,bool,bool,uint256,address,string))":"82dab96e","tickets(uint256)":"50b44712","transferTicket(uint256,address)":"679ebf1a"},"id":0}