{"abi":[{"type":"constructor","inputs":[],"stateMutability":"nonpayable"},{"type":"function","name":"ADDRESS_ALL","inputs":[],"outputs":[{"name":"","type":"address","internalType":"address"}],"stateMutability":"view"},{"type":"function","name":"STRING_ALL","inputs":[],"outputs":[{"name":"","type":"string","internalType":"string"}],"stateMutability":"view"},{"type":"function","name":"activePermissions","inputs":[{"name":"","type":"address","internalType":"address"}],"outputs":[{"name":"","type":"uint256","internalType":"uint256"}],"stateMutability":"view"},{"type":"function","name":"addAllowedOperation","inputs":[{"name":"operation","type":"string","internalType":"string"}],"outputs":[{"name":"","type":"bool","internalType":"bool"}],"stateMutability":"nonpayable"},{"type":"function","name":"addRestrictedOperation","inputs":[{"name":"operation","type":"string","internalType":"string"}],"outputs":[{"name":"","type":"bool","internalType":"bool"}],"stateMutability":"nonpayable"},{"type":"function","name":"addressDefaultPermission","inputs":[],"outputs":[{"name":"","type":"bool","internalType":"bool"}],"stateMutability":"view"},{"type":"function","name":"allowedOperations","inputs":[{"name":"","type":"string","internalType":"string"}],"outputs":[{"name":"","type":"bool","internalType":"bool"}],"stateMutability":"view"},{"type":"function","name":"conditions","inputs":[{"name":"","type":"uint256","internalType":"uint256"}],"outputs":[{"name":"id","type":"uint256","internalType":"uint256"},{"name":"caller","type":"address","internalType":"address"},{"name":"operation","type":"string","internalType":"string"},{"name":"active","type":"bool","internalType":"bool"},{"name":"falseKey","type":"bool","internalType":"bool"},{"name":"trueKey","type":"bool","internalType":"bool"},{"name":"timestampBefore","type":"uint256","internalType":"uint256"},{"name":"timestampAfter","type":"uint256","internalType":"uint256"},{"name":"uintParameter","type":"uint256","internalType":"uint256"},{"name":"addressParameter","type":"address","internalType":"address"},{"name":"stringParameter","type":"string","internalType":"string"}],"stateMutability":"view"},{"type":"function","name":"createEvent","inputs":[{"name":"name","type":"string","internalType":"string"},{"name":"eventDate","type":"uint256","internalType":"uint256"},{"name":"price","type":"tuple","internalType":"struct itUint64","components":[{"name":"ciphertext","type":"uint256","internalType":"ctUint64"},{"name":"signature","type":"bytes","internalType":"bytes"}]},{"name":"totalSupply","type":"tuple","internalType":"struct itUint64","components":[{"name":"ciphertext","type":"uint256","internalType":"ctUint64"},{"name":"signature","type":"bytes","internalType":"bytes"}]},{"name":"resaleAllowed","type":"bool","internalType":"bool"},{"name":"resaleMarkup","type":"tuple","internalType":"struct itUint64","components":[{"name":"ciphertext","type":"uint256","internalType":"ctUint64"},{"name":"signature","type":"bytes","internalType":"bytes"}]}],"outputs":[],"stateMutability":"nonpayable"},{"type":"function","name":"events","inputs":[{"name":"","type":"uint256","internalType":"uint256"}],"outputs":[{"name":"eventId","type":"uint256","internalType":"uint256"},{"name":"organizer","type":"address","internalType":"address"},{"name":"name","type":"string","internalType":"string"},{"name":"eventDate","type":"uint256","internalType":"uint256"},{"name":"encryptedPrice","type":"uint256","internalType":"ctUint64"},{"name":"encryptedTotalSupply","type":"uint256","internalType":"ctUint64"},{"name":"encryptedTicketsSold","type":"uint256","internalType":"ctUint64"},{"name":"resaleAllowed","type":"bool","internalType":"bool"},{"name":"encryptedResaleMarkup","type":"uint256","internalType":"ctUint64"}],"stateMutability":"view"},{"type":"function","name":"getConditions","inputs":[{"name":"startIdx","type":"uint256","internalType":"uint256"},{"name":"chunkSize","type":"uint256","internalType":"uint256"}],"outputs":[{"name":"","type":"tuple[]","internalType":"struct DataPrivacyFramework.Condition[]","components":[{"name":"id","type":"uint256","internalType":"uint256"},{"name":"caller","type":"address","internalType":"address"},{"name":"operation","type":"string","internalType":"string"},{"name":"active","type":"bool","internalType":"bool"},{"name":"falseKey","type":"bool","internalType":"bool"},{"name":"trueKey","type":"bool","internalType":"bool"},{"name":"timestampBefore","type":"uint256","internalType":"uint256"},{"name":"timestampAfter","type":"uint256","internalType":"uint256"},{"name":"uintParameter","type":"uint256","internalType":"uint256"},{"name":"addressParameter","type":"address","internalType":"address"},{"name":"stringParameter","type":"string","internalType":"string"}]}],"stateMutability":"view"},{"type":"function","name":"getConditionsCount","inputs":[],"outputs":[{"name":"","type":"uint256","internalType":"uint256"}],"stateMutability":"view"},{"type":"function","name":"getMyTicketIds","inputs":[],"outputs":[{"name":"","type":"uint256[]","internalType":"uint256[]"}],"stateMutability":"view"},{"type":"function","name":"getMyTicketPrice","inputs":[{"name":"ticketId","type":"uint256","internalType":"uint256"}],"outputs":[],"stateMutability":"nonpayable"},{"type":"function","name":"isOperationAllowed","inputs":[{"name":"caller","type":"address","internalType":"address"},{"name":"operation","type":"string","internalType":"string"},{"name":"uintParameter","type":"uint256","internalType":"uint256"}],"outputs":[{"name":"","type":"bool","internalType":"bool"}],"stateMutability":"view"},{"type":"function","name":"isOperationAllowed","inputs":[{"name":"caller","type":"address","internalType":"address"},{"name":"operation","type":"string","internalType":"string"}],"outputs":[{"name":"","type":"bool","internalType":"bool"}],"stateMutability":"view"},{"type":"function","name":"isOperationAllowed","inputs":[{"name":"caller","type":"address","internalType":"address"},{"name":"operation","type":"string","internalType":"string"},{"name":"stringParameter","type":"string","internalType":"string"}],"outputs":[{"name":"","type":"bool","internalType":"bool"}],"stateMutability":"view"},{"type":"function","name":"isOperationAllowed","inputs":[{"name":"caller","type":"address","internalType":"address"},{"name":"operation","type":"string","internalType":"string"},{"name":"addressParameter","type":"address","internalType":"address"}],"outputs":[{"name":"","type":"bool","internalType":"bool"}],"stateMutability":"view"},{"type":"function","name":"operationDefaultPermission","inputs":[],"outputs":[{"name":"","type":"bool","internalType":"bool"}],"stateMutability":"view"},{"type":"function","name":"permissions","inputs":[{"name":"","type":"address","internalType":"address"},{"name":"","type":"string","internalType":"string"}],"outputs":[{"name":"","type":"uint256","internalType":"uint256"}],"stateMutability":"view"},{"type":"function","name":"proveOwnership","inputs":[{"name":"ticketId","type":"uint256","internalType":"uint256"}],"outputs":[],"stateMutability":"nonpayable"},{"type":"function","name":"purchaseTicket","inputs":[{"name":"eventId","type":"uint256","internalType":"uint256"}],"outputs":[],"stateMutability":"nonpayable"},{"type":"function","name":"removeAllowedOperation","inputs":[{"name":"operation","type":"string","internalType":"string"}],"outputs":[{"name":"","type":"bool","internalType":"bool"}],"stateMutability":"nonpayable"},{"type":"function","name":"removeRestrictedOperation","inputs":[{"name":"operation","type":"string","internalType":"string"}],"outputs":[{"name":"","type":"bool","internalType":"bool"}],"stateMutability":"nonpayable"},{"type":"function","name":"resaleListings","inputs":[{"name":"","type":"uint256","internalType":"uint256"}],"outputs":[{"name":"","type":"uint256","internalType":"ctUint64"}],"stateMutability":"view"},{"type":"function","name":"restrictedOperations","inputs":[{"name":"","type":"string","internalType":"string"}],"outputs":[{"name":"","type":"bool","internalType":"bool"}],"stateMutability":"view"},{"type":"function","name":"setAddressDefaultPermission","inputs":[{"name":"defaultPermission","type":"bool","internalType":"bool"}],"outputs":[{"name":"","type":"bool","internalType":"bool"}],"stateMutability":"nonpayable"},{"type":"function","name":"setOperationDefaultPermission","inputs":[{"name":"defaultPermission","type":"bool","internalType":"bool"}],"outputs":[{"name":"","type":"bool","internalType":"bool"}],"stateMutability":"nonpayable"},{"type":"function","name":"setPermission","inputs":[{"name":"inputData","type":"tuple","internalType":"struct DataPrivacyFramework.InputData","components":[{"name":"caller","type":"address","internalType":"address"},{"name":"operation","type":"string","internalType":"string"},{"name":"active","type":"bool","internalType":"bool"},{"name":"timestampBefore","type":"uint256","internalType":"uint256"},{"name":"timestampAfter","type":"uint256","internalType":"uint256"},{"name":"falseKey","type":"bool","internalType":"bool"},{"name":"trueKey","type":"bool","internalType":"bool"},{"name":"uintParameter","type":"uint256","internalType":"uint256"},{"name":"addressParameter","type":"address","internalType":"address"},{"name":"stringParameter","type":"string","internalType":"string"}]}],"outputs":[{"name":"","type":"bool","internalType":"bool"}],"stateMutability":"nonpayable"},{"type":"function","name":"tickets","inputs":[{"name":"","type":"uint256","internalType":"uint256"}],"outputs":[{"name":"ticketId","type":"uint256","internalType":"uint256"},{"name":"eventId","type":"uint256","internalType":"uint256"},{"name":"owner","type":"address","internalType":"address"},{"name":"encryptedPurchasePrice","type":"uint256","internalType":"ctUint64"}],"stateMutability":"view"},{"type":"function","name":"transferTicket","inputs":[{"name":"ticketId","type":"uint256","internalType":"uint256"},{"name":"to","type":"address","internalType":"address"}],"outputs":[],"stateMutability":"nonpayable"},{"type":"event","name":"EncryptedValueForUser","inputs":[{"name":"user","type":"address","indexed":true,"internalType":"address"},{"name":"value","type":"uint256","indexed":false,"internalType":"ctUint64"}],"anonymous":false},{"type":"event","name":"EventCreated","inputs":[{"name":"eventId","type":"uint256","indexed":true,"internalType":"uint256"},{"name":"organizer","type":"address","indexed":true,"internalType":"address"},{"name":"name","type":"string","indexed":false,"internalType":"string"}],"anonymous":false},{"type":"event","name":"OwnershipProof","inputs":[{"name":"ticketId","type":"uint256","indexed":true,"internalType":"uint256"},{"name":"owner","type":"address","indexed":true,"internalType":"address"},{"name":"encryptedProof","type":"uint256","indexed":false,"internalType":"ctUint64"}],"anonymous":false},{"type":"event","name":"TicketListedForResale","inputs":[{"name":"ticketId","type":"uint256","indexed":true,"internalType":"uint256"},{"name":"resalePrice","type":"uint256","indexed":false,"internalType":"ctUint64"}],"anonymous":false},{"type":"event","name":"TicketPurchased","inputs":[{"name":"ticketId","type":"uint256","indexed":true,"internalType":"uint256"},{"name":"eventId","type":"uint256","indexed":true,"internalType":"uint256"},{"name":"owner","type":"address","indexed":true,"internalType":"address"}],"anonymous":false},{"type":"event","name":"TicketTransferred","inputs":[{"name":"ticketId","type":"uint256","indexed":true,"internalType":"uint256"},{"name":"from","type":"address","indexed":true,"internalType":"address"},{"name":"to","type":"address","indexed":true,"internalType":"address"}],"anonymous":false},{"type":"error","name":"EventNotFound","inputs":[]},{"type":"error","name":"InvalidRecipient","inputs":[]},{"type":"error","name":"NotOwner","inputs":[]},{"type":"error","name":"TicketsNotAvailable","inputs":[]}],"bytecode":{"object":"0x608060405260016005553480156200001657600080fd5b506000805461ffff191681556040516430b236b4b760d91b815281908190819060019081906005019081526040805160209281900383018120805460ff1916941515949094179093556101408301815233835280518082018252600581526430b236b4b760d91b81840152828401526001838201526000606084018190526080840181905260a0840181905260c0840181905260e08401819052610100840181905281519283019091528152610120820152620000d39062000242565b506040805180820182526001808252601560f91b602083015291518291620000fb916200063e565b9081526040805160209281900383018120805460ff19169415159490941790935561014083018152600180845281518083018352818152601560f91b8185015283850152838201526000606084018190526080840181905260a0840181905260c0840181905260e084018190526101008401819052815192830190915281526101208201526200018b9062000242565b50505050506200023b604051806101400160405280336001600160a01b031681526020016040518060400160405280600f81526020016e1bdc17d8dc99585d1957d95d995b9d608a1b815250815260200160011515815260200160008152602001600081526020016000151581526020016000151581526020016000815260200160006001600160a01b03168152602001604051806020016040528060008152508152506200024260201b60201c565b506200082c565b80516001600160a01b031660009081526004602090815260408083209184015190516200027091906200063e565b908152602001604051809103902054600003620004ab5760055482516001600160a01b03166000908152600460209081526040918290209085015191519091620002ba916200063e565b908152602001604051809103902081905550604051806101600160405280600554815260200183600001516001600160a01b03168152602001836020015181526020018360400151151581526020018360a00151151581526020018360c001511515815260200183606001518152602001836080015181526020018360e0015181526020018361010001516001600160a01b031681526020018361012001518152506006600060055481526020019081526020016000206000820151816000015560208201518160010160006101000a8154816001600160a01b0302191690836001600160a01b031602179055506040820151816002019081620003bf919062000714565b506060820151600382018054608085015160a086015161ffff1990921693151561ff0019169390931761010093151584021762ff00001916620100009115159190910217905560c0830151600483015560e0830151600583015582015160068201556101208201516007820180546001600160a01b0319166001600160a01b0390921691909117905561014082015160088201906200045f908262000714565b509050506005600081546200047490620007f6565b9091555081516001600160a01b031660009081526003602052604081208054909190620004a190620007f6565b9091555062000636565b81516001600160a01b0316600090815260046020908152604080832091850151905160069284929091620004e091906200063e565b9081526020016040518091039020548152602001908152602001600020905082604001518015620005165750600381015460ff16155b156200054a5782516001600160a01b0316600090815260036020526040812080549091906200054590620007f6565b909155505b8260400151158015620005615750600381015460ff165b15620005955782516001600160a01b031660009081526003602052604081208054909190620005909062000812565b909155505b6040830151600382018054606086015160048501556080860151600585015560a086015160c087015161ffff1990921693151561ff0019169390931761010093151584021762ff00001916620100009115159190910217905560e084015160068301558301516007820180546001600160a01b0319166001600160a01b03909216919091179055610120830151600882019062000633908262000714565b50505b506001919050565b6000825160005b8181101562000661576020818601810151858301520162000645565b506000920191825250919050565b634e487b7160e01b600052604160045260246000fd5b600181811c908216806200069a57607f821691505b602082108103620006bb57634e487b7160e01b600052602260045260246000fd5b50919050565b601f8211156200070f57600081815260208120601f850160051c81016020861015620006ea5750805b601f850160051c820191505b818110156200070b57828155600101620006f6565b5050505b505050565b81516001600160401b038111156200073057620007306200066f565b620007488162000741845462000685565b84620006c1565b602080601f831160018114620007805760008415620007675750858301515b600019600386901b1c1916600185901b1785556200070b565b600085815260208120601f198616915b82811015620007b15788860151825594840194600190910190840162000790565b5085821015620007d05787850151600019600388901b60f8161c191681555b5050505050600190811b01905550565b634e487b7160e01b600052601160045260246000fd5b6000600182016200080b576200080b620007e0565b5060010190565b600081620008245762000824620007e0565b506000190190565b613ddc806200083c6000396000f3fe608060405234801561001057600080fd5b50600436106101755760003560e01c80630b7914301461017a57806326c50007146101ab57806334906a4a146101d5578063372db08914610213578063476a95ad1461022657806350b447121461023957806365c58152146102a957806366195701146102bc578063679ebf1a146102d2578063699d7c33146102e757806382dab96e146102fa5780638fb009d31461030d5780639359c28714610322578063a5fcf16214610335578063a74d343914610342578063a7804d6514610355578063ade0bee414610375578063b41b4bd414610388578063b948348c146103a8578063c6064b28146103bb578063c8d757fd146103ce578063cd5468a71461040a578063cec215041461041d578063e83627fa14610430578063efdcec9c14610443578063f28b9f3414610470578063f558936414610482578063f9529ee2146104b0578063fa1b3cac146104c3578063fac66f01146104e3578063fb83bb7314610503575b600080fd5b61018d610188366004613080565b610516565b6040516101a2999897969594939291906130f6565b60405180910390f35b6101be6101b9366004613080565b6105f5565b6040516101a29b9a99989796959493929190613158565b6102036101e33660046132b4565b805160208183018101805160018252928201919093012091525460ff1681565b60405190151581526020016101a2565b61020361022136600461334c565b610778565b6102036102343660046133c1565b6107a3565b61027a610247366004613080565b6008602052600090815260409020805460018201546002830154600390930154919290916001600160a01b039091169084565b6040516101a2949392919093845260208401929092526001600160a01b03166040830152606082015260800190565b6102036102b73660046132b4565b6107ee565b6102c46108a4565b6040519081526020016101a2565b6102e56102e03660046133de565b6108ba565b005b6102036102f536600461340a565b610ee4565b61020361030836600461345c565b610f0e565b6103156112f0565b6040516101a29190613565565b6102036103303660046132b4565b611351565b6000546102039060ff1681565b6102036103503660046135a9565b6113d4565b6102c4610363366004613629565b60036020526000908152604090205481565b6102036103833660046133c1565b611427565b6102c4610396366004613080565b600a6020526000908152604090205481565b6102e56103b6366004613080565b611479565b6102036103c9366004613644565b611990565b6102c46103dc3660046136a8565b6004602090815260009283526040909220815180830184018051928152908401929093019190912091525481565b6102e561041836600461370d565b6119b2565b6102e561042b366004613080565b611dd2565b6102e561043e366004613080565b611e60565b610463604051806040016040528060018152602001601560f91b81525081565b6040516101a291906137d2565b60005461020390610100900460ff1681565b6102036104903660046132b4565b805160208183018101805160028252928201919093012091525460ff1681565b6102036104be3660046137e5565b61211b565b6104cb600181565b6040516001600160a01b0390911681526020016101a2565b6104f66104f1366004613826565b6121c9565b6040516101a29190613848565b6102036105113660046137e5565b612547565b60076020526000908152604090208054600182015460028301805492936001600160a01b039092169261054890613950565b80601f016020809104026020016040519081016040528092919081815260200182805461057490613950565b80156105c15780601f10610596576101008083540402835291602001916105c1565b820191906000526020600020905b8154815290600101906020018083116105a457829003601f168201915b50505060038401546004850154600586015460068701546007880154600890980154969793969295509093509160ff169089565b60066020526000908152604090208054600182015460028301805492936001600160a01b039092169261062790613950565b80601f016020809104026020016040519081016040528092919081815260200182805461065390613950565b80156106a05780601f10610675576101008083540402835291602001916106a0565b820191906000526020600020905b81548152906001019060200180831161068357829003601f168201915b5050505060038301546004840154600585015460068601546007870154600888018054979860ff808816996101008904821699506201000090980416966001600160a01b03909316929091906106f590613950565b80601f016020809104026020016040519081016040528092919081815260200182805461072190613950565b801561076e5780601f106107435761010080835404028352916020019161076e565b820191906000526020600020905b81548152906001019060200180831161075157829003601f168201915b505050505090508b565b600061079a8585856001866000604051806020016040528060008152506125ce565b95945050505050565b6000805482151560ff9091161515036107d75760405162461bcd60e51b81526004016107ce90613984565b60405180910390fd5b506000805460ff1916911515919091179055600190565b600060028260405161080091906139bb565b9081526040519081900360200190205460ff161561086a5760405162461bcd60e51b815260206004820152602160248201527f4450463a204f5045524154494f4e5f414c52454144595f5245535452494354456044820152601160fa1b60648201526084016107ce565b600160028360405161087c91906139bb565b908152604051908190036020019020805491151560ff19909216919091179055506001919050565b600060016005546108b591906139ed565b905090565b604051806040016040528060128152602001711bdc17dd1c985b9cd9995c97dd1a58dad95d60721b81525082600060405180602001604052806000815250826000146109895760405163372db08960e01b8152309063372db0899061092790339088908890600401613a00565b602060405180830381865afa158015610944573d6000803e3d6000fd5b505050506040513d601f19601f820116820180604052508101906109689190613a34565b6109845760405162461bcd60e51b81526004016107ce90613a51565b610aa3565b6001600160a01b038216156109bf576040516318c0c96560e31b8152309063c6064b289061092790339088908790600401613a7e565b60408051600081526020810180835281519020916109df918491016139bb565b6040516020818303038152906040528051906020012014610a215760405163a74d343960e01b8152309063a74d34399061092790339088908690600401613ab3565b60405163699d7c3360e01b8152309063699d7c3390610a469033908890600401613ae9565b602060405180830381865afa158015610a63573d6000803e3d6000fd5b505050506040513d601f19601f82011682018060405250810190610a879190613a34565b610aa35760405162461bcd60e51b81526004016107ce90613a51565b60008681526008602052604090206002015486906001600160a01b03163314610adf576040516330cd747160e01b815260040160405180910390fd5b6001600160a01b038616610b0657604051634e46966960e11b815260040160405180910390fd5b600087815260086020908152604080832060020180546001600160a01b0319166001600160a01b038b16179055338084526009909252822090915b8154811015610bf55789828281548110610b5d57610b5d613b0d565b906000526020600020015403610be35781548290610b7d906001906139ed565b81548110610b8d57610b8d613b0d565b9060005260206000200154828281548110610baa57610baa613b0d565b906000526020600020018190555081805480610bc857610bc8613b23565b60019003818190600052602060002001600090559055610bf5565b80610bed81613b39565b915050610b41565b506001600160a01b0380891660009081526009602090815260408083208054600181018255908452828420018d905580516101408101825293861684528051808201825260128152711bdc17dd1c985b9cd9995c97dd1a58dad95d60721b8184015284830152838101839052606084018390526080840183905260a0840183905260c0840183905260e084018d9052610100840183905280519182019052908152610120820152610ca590610f0e565b50610d4b604051806101400160405280846001600160a01b031681526020016040518060400160405280601281526020017106f705f70726f76655f6f776e6572736869760741b815250815260200160001515815260200160008152602001600081526020016000151581526020016000151581526020018b815260200160006001600160a01b0316815260200160405180602001604052806000815250815250610f0e565b50610df16040518061014001604052808a6001600160a01b03168152602001604051806040016040528060128152602001711bdc17dd1c985b9cd9995c97dd1a58dad95d60721b815250815260200160011515815260200160008152602001600081526020016000151581526020016000151581526020018b815260200160006001600160a01b0316815260200160405180602001604052806000815250815250610f0e565b50610e976040518061014001604052808a6001600160a01b031681526020016040518060400160405280601281526020017106f705f70726f76655f6f776e6572736869760741b815250815260200160011515815260200160008152602001600081526020016000151581526020016000151581526020018b815260200160006001600160a01b0316815260200160405180602001604052806000815250815250610f0e565b50876001600160a01b0316826001600160a01b03168a7fd15524263ae66f75c1e604c47db6085085110f23ef7322b355179ac5e3b0783a60405160405180910390a4505050505050505050565b6000610f068484846000806000604051806020016040528060008152506125ce565b949350505050565b80516001600160a01b03166000908152600460209081526040808320918401519051610f3a91906139bb565b9081526020016040518091039020546000036111695760055482516001600160a01b03166000908152600460209081526040918290209085015191519091610f81916139bb565b908152602001604051809103902081905550604051806101600160405280600554815260200183600001516001600160a01b03168152602001836020015181526020018360400151151581526020018360a00151151581526020018360c001511515815260200183606001518152602001836080015181526020018360e0015181526020018361010001516001600160a01b031681526020018361012001518152506006600060055481526020019081526020016000206000820151816000015560208201518160010160006101000a8154816001600160a01b0302191690836001600160a01b0316021790555060408201518160020190816110849190613ba1565b506060820151600382018054608085015160a086015161ffff1990921693151561ff0019169390931761010093151584021762ff00001916620100009115159190910217905560c0830151600483015560e0830151600583015582015160068201556101208201516007820180546001600160a01b0319166001600160a01b0390921691909117905561014082015160088201906111229082613ba1565b5090505060056000815461113590613b39565b9091555081516001600160a01b03166000908152600360205260408120805490919061116090613b39565b909155506112e8565b81516001600160a01b031660009081526004602090815260408083209185015190516006928492909161119c91906139bb565b90815260200160405180910390205481526020019081526020016000209050826040015180156111d15750600381015460ff16155b156112025782516001600160a01b0316600090815260036020526040812080549091906111fd90613b39565b909155505b82604001511580156112185750600381015460ff165b156112495782516001600160a01b03166000908152600360205260408120805490919061124490613c60565b909155505b6040830151600382018054606086015160048501556080860151600585015560a086015160c087015161ffff1990921693151561ff0019169390931761010093151584021762ff00001916620100009115159190910217905560e084015160068301558301516007820180546001600160a01b0319166001600160a01b0390921691909117905561012083015160088201906112e59082613ba1565b50505b506001919050565b3360009081526009602090815260409182902080548351818402810184019094528084526060939283018282801561134757602002820191906000526020600020905b815481526020019060010190808311611333575b5050505050905090565b600060018260405161136391906139bb565b9081526040519081900360200190205460ff16156113c35760405162461bcd60e51b815260206004820152601e60248201527f4450463a204f5045524154494f4e5f414c52454144595f414c4c4f574544000060448201526064016107ce565b6001808360405161087c91906139bb565b600061141d868686600360008089898080601f0160208091040260200160405190810160405280939291908181526020018383808284376000920191909152506125ce92505050565b9695505050505050565b6000811515600060019054906101000a900460ff1615150361145b5760405162461bcd60e51b81526004016107ce90613984565b50600080549115156101000261ff0019909216919091179055600190565b604051806040016040528060128152602001711bdc17dc1d5c98da185cd957dd1a58dad95d60721b81525081600060405180602001604052806000815250826000146115485760405163372db08960e01b8152309063372db089906114e690339088908890600401613a00565b602060405180830381865afa158015611503573d6000803e3d6000fd5b505050506040513d601f19601f820116820180604052508101906115279190613a34565b6115435760405162461bcd60e51b81526004016107ce90613a51565b611662565b6001600160a01b0382161561157e576040516318c0c96560e31b8152309063c6064b28906114e690339088908790600401613a7e565b604080516000815260208101808352815190209161159e918491016139bb565b60405160208183030381529060405280519060200120146115e05760405163a74d343960e01b8152309063a74d3439906114e690339088908690600401613ab3565b60405163699d7c3360e01b8152309063699d7c33906116059033908890600401613ae9565b602060405180830381865afa158015611622573d6000803e3d6000fd5b505050506040513d601f19601f820116820180604052508101906116469190613a34565b6116625760405162461bcd60e51b81526004016107ce90613a51565b6000858152600760205260408120805490910361169257604051635add554360e01b815260040160405180910390fd5b60006116a18260060154612b3e565b905060006116b28360050154612b3e565b905060006116c06001612bae565b905060006116ce6000612bae565b905060006116dc8585612be4565b905060006116eb828585612c7a565b90506116f78482612d0f565b5061170a6117058786612d24565b612d39565b87600601819055506000600c6000815461172390613b39565b919050819055905060405180608001604052808281526020018e8152602001336001600160a01b03168152602001896004015481525060086000838152602001908152602001600020600082015181600001556020820151816001015560408201518160020160006101000a8154816001600160a01b0302191690836001600160a01b031602179055506060820151816003015590505060096000336001600160a01b03166001600160a01b031681526020019081526020016000208190806001815401808255809150506001900390600052602060002001600090919091909150556118ab604051806101400160405280336001600160a01b03168152602001604051806040016040528060128152602001711bdc17dd1c985b9cd9995c97dd1a58dad95d60721b8152508152602001600115158152602001600081526020016000815260200160001515815260200160001515815260200183815260200160006001600160a01b0316815260200160405180602001604052806000815250815250610f0e565b50611951604051806101400160405280336001600160a01b031681526020016040518060400160405280601281526020017106f705f70726f76655f6f776e6572736869760741b8152508152602001600115158152602001600081526020016000815260200160001515815260200160001515815260200183815260200160006001600160a01b0316815260200160405180602001604052806000815250815250610f0e565b5060405133908e9083907f94c5953e15f54d38b82a662bdd5739fc91af3a23d3ef7e67269dfaeee71a813c90600090a450505050505050505050505050565b600061079a8585856002600087604051806020016040528060008152506125ce565b6040518060400160405280600f81526020016e1bdc17d8dc99585d1957d95d995b9d608a1b8152506000806040518060200160405280600081525082600014611a7e5760405163372db08960e01b8152309063372db08990611a1c90339088908890600401613a00565b602060405180830381865afa158015611a39573d6000803e3d6000fd5b505050506040513d601f19601f82011682018060405250810190611a5d9190613a34565b611a795760405162461bcd60e51b81526004016107ce90613a51565b611b98565b6001600160a01b03821615611ab4576040516318c0c96560e31b8152309063c6064b2890611a1c90339088908790600401613a7e565b6040805160008152602081018083528151902091611ad4918491016139bb565b6040516020818303038152906040528051906020012014611b165760405163a74d343960e01b8152309063a74d343990611a1c90339088908690600401613ab3565b60405163699d7c3360e01b8152309063699d7c3390611b3b9033908890600401613ae9565b602060405180830381865afa158015611b58573d6000803e3d6000fd5b505050506040513d601f19601f82011682018060405250810190611b7c9190613a34565b611b985760405162461bcd60e51b81526004016107ce90613a51565b6000600b60008154611ba990613b39565b9190508190559050604051806101200160405280828152602001336001600160a01b031681526020018c81526020018b8152602001611bf36117058c611bee90613c77565b612d49565b8152602001611c07611705611bee8c613c77565b8152602001611c196117056000612bae565b81528815156020820152604001611c35611705611bee8a613c77565b905260008281526007602090815260409182902083518155908301516001820180546001600160a01b0319166001600160a01b03909216919091179055908201516002820190611c859082613ba1565b50606082015181600301556080820151816004015560a0820151816005015560c0820151816006015560e08201518160070160006101000a81548160ff0219169083151502179055506101008201518160080155905050611d8260405180610140016040528060006001600160a01b03168152602001604051806040016040528060128152602001711bdc17dc1d5c98da185cd957dd1a58dad95d60721b8152508152602001600115158152602001600081526020016000815260200160011515815260200160001515815260200183815260200160006001600160a01b0316815260200160405180602001604052806000815250815250610f0e565b50336001600160a01b0316817ffc695dea2478fb938a11068aeedddd7046a5fe655f136e30a325d353fe187a458d604051611dbd91906137d2565b60405180910390a35050505050505050505050565b60008181526008602052604090206002015481906001600160a01b03163314611e0e576040516330cd747160e01b815260040160405180910390fd5b6000828152600860205260409081902060030154905133917f978b13d800eb238cb17d97d7a54f23297f312322f36b0f7e9d2096abce23df2b91611e5491815260200190565b60405180910390a25050565b6040518060400160405280601281526020017106f705f70726f76655f6f776e6572736869760741b8152508160006040518060200160405280600081525082600014611f2f5760405163372db08960e01b8152309063372db08990611ecd90339088908890600401613a00565b602060405180830381865afa158015611eea573d6000803e3d6000fd5b505050506040513d601f19601f82011682018060405250810190611f0e9190613a34565b611f2a5760405162461bcd60e51b81526004016107ce90613a51565b612049565b6001600160a01b03821615611f65576040516318c0c96560e31b8152309063c6064b2890611ecd90339088908790600401613a7e565b6040805160008152602081018083528151902091611f85918491016139bb565b6040516020818303038152906040528051906020012014611fc75760405163a74d343960e01b8152309063a74d343990611ecd90339088908690600401613ab3565b60405163699d7c3360e01b8152309063699d7c3390611fec9033908890600401613ae9565b602060405180830381865afa158015612009573d6000803e3d6000fd5b505050506040513d601f19601f8201168201806040525081019061202d9190613a34565b6120495760405162461bcd60e51b81526004016107ce90613a51565b60008581526008602052604090206002015485906001600160a01b03163314612085576040516330cd747160e01b815260040160405180910390fd5b6040805142602080830191909152818301899052825180830384018152606090920190925280519101208060006120bb82612bae565b905060006120c98233612d7d565b9050336001600160a01b03168a7f46def9bc9f2f486533da902625b44be71e5647af0c645e42ec64466c8d4183178360405161210791815260200190565b60405180910390a350505050505050505050565b60006001838360405161212f929190613cf5565b9081526040519081900360200190205460ff1661218b5760405162461bcd60e51b815260206004820152601a6024820152791114118e8813d4115490551253d397d393d517d0531313d5d15160321b60448201526064016107ce565b60006001848460405161219f929190613cf5565b908152604051908190036020019020805491151560ff199092169190911790555060015b92915050565b6060600083116122115760405162461bcd60e51b81526020600482015260136024820152724450463a2053544152545f4944585f5a45524f60681b60448201526064016107ce565b600082116122585760405162461bcd60e51b81526020600482015260146024820152734450463a204348554e4b5f53495a455f5a45524f60601b60448201526064016107ce565b600554831061229a576040805160008082526020820190925290612292565b61227f61300e565b8152602001906001900390816122775790505b5090506121c3565b600060016005546122ab91906139ed565b60016122b78587613d05565b6122c191906139ed565b11156122da57836005546122d591906139ed565b6122dc565b825b90506000816001600160401b038111156122f8576122f86131e0565b60405190808252806020026020018201604052801561233157816020015b61231e61300e565b8152602001906001900390816123165790505b50905060005b8281101561253e576006600061234d8389613d05565b815260208082019290925260409081016000208151610160810183528154815260018201546001600160a01b031693810193909352600281018054919284019161239690613950565b80601f01602080910402602001604051908101604052809291908181526020018280546123c290613950565b801561240f5780601f106123e45761010080835404028352916020019161240f565b820191906000526020600020905b8154815290600101906020018083116123f257829003601f168201915b5050509183525050600382015460ff8082161515602084015261010080830482161515604085015262010000909204161515606083015260048301546080830152600583015460a0830152600683015460c083015260078301546001600160a01b031660e083015260088301805491909201919061248c90613950565b80601f01602080910402602001604051908101604052809291908181526020018280546124b890613950565b80156125055780601f106124da57610100808354040283529160200191612505565b820191906000526020600020905b8154815290600101906020018083116124e857829003601f168201915b50505050508152505082828151811061252057612520613b0d565b6020026020010181905250808061253690613b39565b915050612337565b50949350505050565b60006002838360405161255b929190613cf5565b9081526040519081900360200190205460ff166125ba5760405162461bcd60e51b815260206004820152601d60248201527f4450463a204f5045524154494f4e5f4e4f545f5245535452494354454400000060448201526064016107ce565b60006002848460405161219f929190613cf5565b6000600287876040516125e2929190613cf5565b9081526040519081900360200190205460ff161561260257506000612b33565b6040805180820182526001808252601560f91b6020830152915161262691906139bb565b9081526040519081900360200190205460ff16158015612668575060018787604051612653929190613cf5565b9081526040519081900360200190205460ff16155b1561267557506000612b33565b6001600160a01b038816600090815260046020526040808220905160069291906126a2908b908b90613cf5565b908152604080516020928190038301902054835290820192909252016000206003015460ff16156128f8576001600160a01b03881660009081526004602052604080822090516128f19260069290916126fe908c908c90613cf5565b908152602001604051809103902054815260200190815260200160002060405180610160016040529081600082015481526020016001820160009054906101000a90046001600160a01b03166001600160a01b03166001600160a01b0316815260200160028201805461277090613950565b80601f016020809104026020016040519081016040528092919081815260200182805461279c90613950565b80156127e95780601f106127be576101008083540402835291602001916127e9565b820191906000526020600020905b8154815290600101906020018083116127cc57829003601f168201915b5050509183525050600382015460ff8082161515602084015261010080830482161515604085015262010000909204161515606083015260048301546080830152600583015460a0830152600683015460c083015260078301546001600160a01b031660e083015260088301805491909201919061286690613950565b80601f016020809104026020016040519081016040528092919081815260200182805461289290613950565b80156128df5780601f106128b4576101008083540402835291602001916128df565b820191906000526020600020905b8154815290600101906020018083116128c257829003601f168201915b50505050508152505086868686612dd2565b9050612b33565b6001600160a01b03881660009081526004602090815260408083208151808301835260018152601560f91b93810193909352905160069392612939916139bb565b908152604080516020928190038301902054835290820192909252016000206003015460ff16156129b7576128f160066000600460008c6001600160a01b03166001600160a01b03168152602001908152602001600020604051806040016040528060018152602001601560f91b8152506040516126fe91906139bb565b6001600160a01b038816600090815260036020526040902054156129e65750600054610100900460ff16612b33565b60016000908152600460205260405160069190600080516020613d8783398151915290612a16908b908b90613cf5565b908152604080516020928190038301902054835290820192909252016000206003015460ff1615612a74576001600090815260046020526040516128f191600691600080516020613d87833981519152906126fe908c908c90613cf5565b6001600081815260046020908152604080518082018252938452601560f91b9184019190915251600692600080516020613d8783398151915291612ab891906139bb565b908152604080516020928190038301902054835290820192909252016000206003015460ff1615612b2b576001600081815260046020908152604080518082018252938452601560f91b91840191909152516128f19260069291600080516020613d87833981519152916126fe916139bb565b5060005460ff165b979650505050505050565b6000606463d2c135e560045b60f81b846040518363ffffffff1660e01b8152600401612b6b929190613d2e565b6020604051808303816000875af1158015612b8a573d6000803e3d6000fd5b505050506040513d601f19601f820116820180604052508101906121c39190613d48565b6040516306cdb05b60e51b815260009060649063d9b60b6090612b6b90600160fa1b906001600160401b03871690600401613d2e565b6000606463dd148693612bf960048085612fb1565b6040516001600160e01b031960e084901b1681526001600160e81b0319909116600482015260248101869052604481018590526064015b6020604051808303816000875af1158015612c4f573d6000803e3d6000fd5b505050506040513d601f19601f82011682018060405250810190612c739190613d48565b9392505050565b600060646320cc408d612c8f60048085612fb1565b6040516001600160e01b031960e084901b1681526001600160e81b031990911660048201526024810187905260448101869052606481018590526084016020604051808303816000875af1158015612ceb573d6000803e3d6000fd5b505050506040513d601f19601f82011682018060405250810190610f069190613d48565b60006064634e9ba4b5612bf960048085612fb1565b60006064638c5d0150612bf960048085612fb1565b6000606463c50c9c026004612b4a565b80516020820151604051630e4f36e160e41b815260009260649263e4f36e1092612b6b92600160fa1b929091600401613d61565b60408051606083901b6001600160601b031916602082015281516014818303018152603482019283905263078de1cd60e31b909252600091606491633c6f0e6891612c3091600160fa1b918891603801613d61565b6000856080015115612de65750600061079a565b8560a0015115612df85750600161079a565b60008660c00151118015612e0f5750428660c00151105b15612e1c5750600061079a565b60008660e00151118015612e335750428660e00151115b15612e405750600061079a565b6001856003811115612e5457612e54613d18565b148015612e65575061010086015115155b8015612e7657508386610100015114155b15612e835750600061079a565b6002856003811115612e9757612e97613d18565b148015612eb157506101208601516001600160a01b031615155b8015612ed45750826001600160a01b03168661012001516001600160a01b031614155b15612ee15750600061079a565b6003856003811115612ef557612ef5613d18565b148015612f3b5750604080516000815260208101808352815190206101408901519092612f2292016139bb565b6040516020818303038152906040528051906020012014155b8015612f98575081604051602001612f5391906139bb565b60405160208183030381529060405280519060200120866101400151604051602001612f7f91906139bb565b6040516020818303038152906040528051906020012014155b15612fa55750600061079a565b50600195945050505050565b6000816002811115612fc557612fc5613d18565b60ff166008846004811115612fdc57612fdc613d18565b61ffff16901b61ffff166010866004811115612ffa57612ffa613d18565b62ffffff16901b171760e81b949350505050565b6040518061016001604052806000815260200160006001600160a01b031681526020016060815260200160001515815260200160001515815260200160001515815260200160008152602001600081526020016000815260200160006001600160a01b03168152602001606081525090565b60006020828403121561309257600080fd5b5035919050565b6001600160a01b03169052565b60005b838110156130c15781810151838201526020016130a9565b50506000910152565b600081518084526130e28160208601602086016130a6565b601f01601f19169290920160200192915050565b8981526001600160a01b0389166020820152610120604082018190526000906131218382018b6130ca565b60608401999099525050608081019590955260a085019390935260c0840191909152151560e0830152610100909101529392505050565b8b81526001600160a01b038b81166020830152610160604083018190526000916131848483018e6130ca565b91508b151560608501528a1515608085015289151560a08501528860c08501528760e085015286610100850152808616610120850152508281036101408401526131ce81856130ca565b9e9d5050505050505050505050505050565b634e487b7160e01b600052604160045260246000fd5b60405161014081016001600160401b0381118282101715613219576132196131e0565b60405290565b60006001600160401b0380841115613239576132396131e0565b604051601f8501601f19908116603f01168101908282118183101715613261576132616131e0565b8160405280935085815286868601111561327a57600080fd5b858560208301376000602087830101525050509392505050565b600082601f8301126132a557600080fd5b612c738383356020850161321f565b6000602082840312156132c657600080fd5b81356001600160401b038111156132dc57600080fd5b610f0684828501613294565b80356001600160a01b03811681146132ff57600080fd5b919050565b60008083601f84011261331657600080fd5b5081356001600160401b0381111561332d57600080fd5b60208301915083602082850101111561334557600080fd5b9250929050565b6000806000806060858703121561336257600080fd5b61336b856132e8565b935060208501356001600160401b0381111561338657600080fd5b61339287828801613304565b9598909750949560400135949350505050565b80151581146133b357600080fd5b50565b80356132ff816133a5565b6000602082840312156133d357600080fd5b8135612c73816133a5565b600080604083850312156133f157600080fd5b82359150613401602084016132e8565b90509250929050565b60008060006040848603121561341f57600080fd5b613428846132e8565b925060208401356001600160401b0381111561344357600080fd5b61344f86828701613304565b9497909650939450505050565b60006020828403121561346e57600080fd5b81356001600160401b038082111561348557600080fd5b90830190610140828603121561349a57600080fd5b6134a26131f6565b6134ab836132e8565b81526020830135828111156134bf57600080fd5b6134cb87828601613294565b6020830152506134dd604084016133b6565b6040820152606083013560608201526080830135608082015261350260a084016133b6565b60a082015261351360c084016133b6565b60c082015260e083013560e08201526101006135308185016132e8565b90820152610120838101358381111561354857600080fd5b61355488828701613294565b918301919091525095945050505050565b6020808252825182820181905260009190848201906040850190845b8181101561359d57835183529284019291840191600101613581565b50909695505050505050565b6000806000806000606086880312156135c157600080fd5b6135ca866132e8565b945060208601356001600160401b03808211156135e657600080fd5b6135f289838a01613304565b9096509450604088013591508082111561360b57600080fd5b5061361888828901613304565b969995985093965092949392505050565b60006020828403121561363b57600080fd5b612c73826132e8565b6000806000806060858703121561365a57600080fd5b613663856132e8565b935060208501356001600160401b0381111561367e57600080fd5b61368a87828801613304565b909450925061369d9050604086016132e8565b905092959194509250565b600080604083850312156136bb57600080fd5b6136c4836132e8565b915060208301356001600160401b038111156136df57600080fd5b6136eb85828601613294565b9150509250929050565b60006040828403121561370757600080fd5b50919050565b60008060008060008060c0878903121561372657600080fd5b86356001600160401b038082111561373d57600080fd5b6137498a838b01613294565b975060208901359650604089013591508082111561376657600080fd5b6137728a838b016136f5565b9550606089013591508082111561378857600080fd5b6137948a838b016136f5565b94506137a260808a016133b6565b935060a08901359150808211156137b857600080fd5b506137c589828a016136f5565b9150509295509295509295565b602081526000612c7360208301846130ca565b600080602083850312156137f857600080fd5b82356001600160401b0381111561380e57600080fd5b61381a85828601613304565b90969095509350505050565b6000806040838503121561383957600080fd5b50508035926020909101359150565b60006020808301818452808551808352604092508286019150828160051b87010184880160005b8381101561394257603f19898403018552815161016081518552888201516138998a870182613099565b508782015181898701526138af828701826130ca565b9150506060808301516138c58288018215159052565b505060808281015115159086015260a08083015115159086015260c0808301519086015260e0808301519086015261010080830151908601526101208083015161391182880182613099565b5050610140808301519250858203818701525061392e81836130ca565b96890196945050509086019060010161386f565b509098975050505050505050565b600181811c9082168061396457607f821691505b60208210810361370757634e487b7160e01b600052602260045260246000fd5b6020808252601e908201527f4450463a20494e56414c49445f5045524d495353494f4e5f4348414e47450000604082015260600190565b600082516139cd8184602087016130a6565b9190910192915050565b634e487b7160e01b600052601160045260246000fd5b818103818111156121c3576121c36139d7565b6001600160a01b0384168152606060208201819052600090613a24908301856130ca565b9050826040830152949350505050565b600060208284031215613a4657600080fd5b8151612c73816133a5565b6020808252601390820152724450463a204e6f205065726d697373696f6e2160681b604082015260600190565b600060018060a01b03808616835260606020840152613aa060608401866130ca565b9150808416604084015250949350505050565b6001600160a01b0384168152606060208201819052600090613ad7908301856130ca565b828103604084015261141d81856130ca565b6001600160a01b0383168152604060208201819052600090610f06908301846130ca565b634e487b7160e01b600052603260045260246000fd5b634e487b7160e01b600052603160045260246000fd5b600060018201613b4b57613b4b6139d7565b5060010190565b601f821115613b9c57600081815260208120601f850160051c81016020861015613b795750805b601f850160051c820191505b81811015613b9857828155600101613b85565b5050505b505050565b81516001600160401b03811115613bba57613bba6131e0565b613bce81613bc88454613950565b84613b52565b602080601f831160018114613c035760008415613beb5750858301515b600019600386901b1c1916600185901b178555613b98565b600085815260208120601f198616915b82811015613c3257888601518255948401946001909101908401613c13565b5085821015613c505787850151600019600388901b60f8161c191681555b5050505050600190811b01905550565b600081613c6f57613c6f6139d7565b506000190190565b600060408236031215613c8957600080fd5b604080519081016001600160401b038082118383101715613cac57613cac6131e0565b81604052843583526020850135915080821115613cc857600080fd5b50830136601f820112613cda57600080fd5b613ce93682356020840161321f565b60208301525092915050565b8183823760009101908152919050565b808201808211156121c3576121c36139d7565b634e487b7160e01b600052602160045260246000fd5b6001600160f81b0319929092168252602082015260400190565b600060208284031215613d5a57600080fd5b5051919050565b60ff60f81b8416815282602082015260606040820152600061079a60608301846130ca56feabd6e7cb50984ff9c2f3e18a2660c3353dadf4e3291deeb275dae2cd1e44fe05a26469706673582212204880878d4418f51c44e1c22d10ed4e3b2aa9ae4c320020f4a6ee2ca49d4c978d64736f6c63430008130033","linkReferences":{}},"methodIdentifiers":{"ADDRESS_ALL()":"fa1b3cac","STRING_ALL()":"efdcec9c","activePermissions(address)":"a7804d65","addAllowedOperation(string)":"9359c287","addRestrictedOperation(string)":"65c58152","addressDefaultPermission()":"a5fcf162","allowedOperations(string)":"34906a4a","conditions(uint256)":"26c50007","createEvent(string,uint256,(uint256,bytes),(uint256,bytes),bool,(uint256,bytes))":"cd5468a7","events(uint256)":"0b791430","getConditions(uint256,uint256)":"fac66f01","getConditionsCount()":"66195701","getMyTicketIds()":"8fb009d3","getMyTicketPrice(uint256)":"cec21504","isOperationAllowed(address,string)":"699d7c33","isOperationAllowed(address,string,address)":"c6064b28","isOperationAllowed(address,string,string)":"a74d3439","isOperationAllowed(address,string,uint256)":"372db089","operationDefaultPermission()":"f28b9f34","permissions(address,string)":"c8d757fd","proveOwnership(uint256)":"e83627fa","purchaseTicket(uint256)":"b948348c","removeAllowedOperation(string)":"f9529ee2","removeRestrictedOperation(string)":"fb83bb73","resaleListings(uint256)":"b41b4bd4","restrictedOperations(string)":"f5589364","setAddressDefaultPermission(bool)":"476a95ad","setOperationDefaultPermission(bool)":"ade0bee4","setPermission((address,string,bool,uint256,uint256,bool,bool,uint256,address,string))":"82dab96e","tickets(uint256)":"50b44712","transferTicket(uint256,address)":"679ebf1a"},"id":0}