{"abi":[{"type":"constructor","inputs":[],"stateMutability":"nonpayable"},{"type":"function","name":"ADDRESS_ALL","inputs":[],"outputs":[{"name":"","type":"address","internalType":"address"}],"stateMutability":"view"},{"type":"function","name":"STRING_ALL","inputs":[],"outputs":[{"name":"","type":"string","internalType":"string"}],"stateMutability":"view"},{"type":"function","name":"activePermissions","inputs":[{"name":"","type":"address","internalType":"address"}],"outputs":[{"name":"","type":"uint256","internalType":"uint256"}],"stateMutability":"view"},{"type":"function","name":"addAllowedOperation","inputs":[{"name":"operation","type":"string","internalType":"string"}],"outputs":[{"name":"","type":"bool","internalType":"bool"}],"stateMutability":"nonpayable"},{"type":"function","name":"addRestrictedOperation","inputs":[{"name":"operation","type":"string","internalType":"string"}],"outputs":[{"name":"","type":"bool","internalType":"bool"}],"stateMutability":"nonpayable"},{"type":"function","name":"addressDefaultPermission","inputs":[],"outputs":[{"name":"","type":"bool","internalType":"bool"}],"stateMutability":"view"},{"type":"function","name":"allowedOperations","inputs":[{"name":"","type":"string","internalType":"string"}],"outputs":[{"name":"","type":"bool","internalType":"bool"}],"stateMutability":"view"},{"type":"function","name":"conditions","inputs":[{"name":"","type":"uint256","internalType":"uint256"}],"outputs":[{"name":"id","type":"uint256","internalType":"uint256"},{"name":"caller","type":"address","internalType":"address"},{"name":"operation","type":"string","internalType":"string"},{"name":"active","type":"bool","internalType":"bool"},{"name":"falseKey","type":"bool","internalType":"bool"},{"name":"trueKey","type":"bool","internalType":"bool"},{"name":"timestampBefore","type":"uint256","internalType":"uint256"},{"name":"timestampAfter","type":"uint256","internalType":"uint256"},{"name":"uintParameter","type":"uint256","internalType":"uint256"},{"name":"addressParameter","type":"address","internalType":"address"},{"name":"stringParameter","type":"string","internalType":"string"}],"stateMutability":"view"},{"type":"function","name":"createEvent","inputs":[{"name":"name","type":"string","internalType":"string"},{"name":"date","type":"uint256","internalType":"uint256"},{"name":"price","type":"uint256","internalType":"uint256"},{"name":"supply","type":"uint256","internalType":"uint256"},{"name":"resale","type":"bool","internalType":"bool"},{"name":"markup","type":"uint256","internalType":"uint256"}],"outputs":[],"stateMutability":"nonpayable"},{"type":"function","name":"events","inputs":[{"name":"","type":"uint256","internalType":"uint256"}],"outputs":[{"name":"id","type":"uint256","internalType":"uint256"},{"name":"org","type":"address","internalType":"address"},{"name":"name","type":"string","internalType":"string"},{"name":"date","type":"uint256","internalType":"uint256"},{"name":"price","type":"uint256","internalType":"uint256"},{"name":"supply","type":"uint256","internalType":"uint256"},{"name":"sold","type":"uint256","internalType":"uint256"},{"name":"resale","type":"bool","internalType":"bool"},{"name":"markup","type":"uint256","internalType":"uint256"}],"stateMutability":"view"},{"type":"function","name":"getConditions","inputs":[{"name":"startIdx","type":"uint256","internalType":"uint256"},{"name":"chunkSize","type":"uint256","internalType":"uint256"}],"outputs":[{"name":"","type":"tuple[]","internalType":"struct DataPrivacyFramework.Condition[]","components":[{"name":"id","type":"uint256","internalType":"uint256"},{"name":"caller","type":"address","internalType":"address"},{"name":"operation","type":"string","internalType":"string"},{"name":"active","type":"bool","internalType":"bool"},{"name":"falseKey","type":"bool","internalType":"bool"},{"name":"trueKey","type":"bool","internalType":"bool"},{"name":"timestampBefore","type":"uint256","internalType":"uint256"},{"name":"timestampAfter","type":"uint256","internalType":"uint256"},{"name":"uintParameter","type":"uint256","internalType":"uint256"},{"name":"addressParameter","type":"address","internalType":"address"},{"name":"stringParameter","type":"string","internalType":"string"}]}],"stateMutability":"view"},{"type":"function","name":"getConditionsCount","inputs":[],"outputs":[{"name":"","type":"uint256","internalType":"uint256"}],"stateMutability":"view"},{"type":"function","name":"getMyTicketIds","inputs":[],"outputs":[{"name":"","type":"uint256[]","internalType":"uint256[]"}],"stateMutability":"view"},{"type":"function","name":"isOperationAllowed","inputs":[{"name":"caller","type":"address","internalType":"address"},{"name":"operation","type":"string","internalType":"string"},{"name":"uintParameter","type":"uint256","internalType":"uint256"}],"outputs":[{"name":"","type":"bool","internalType":"bool"}],"stateMutability":"view"},{"type":"function","name":"isOperationAllowed","inputs":[{"name":"caller","type":"address","internalType":"address"},{"name":"operation","type":"string","internalType":"string"}],"outputs":[{"name":"","type":"bool","internalType":"bool"}],"stateMutability":"view"},{"type":"function","name":"isOperationAllowed","inputs":[{"name":"caller","type":"address","internalType":"address"},{"name":"operation","type":"string","internalType":"string"},{"name":"stringParameter","type":"string","internalType":"string"}],"outputs":[{"name":"","type":"bool","internalType":"bool"}],"stateMutability":"view"},{"type":"function","name":"isOperationAllowed","inputs":[{"name":"caller","type":"address","internalType":"address"},{"name":"operation","type":"string","internalType":"string"},{"name":"addressParameter","type":"address","internalType":"address"}],"outputs":[{"name":"","type":"bool","internalType":"bool"}],"stateMutability":"view"},{"type":"function","name":"operationDefaultPermission","inputs":[],"outputs":[{"name":"","type":"bool","internalType":"bool"}],"stateMutability":"view"},{"type":"function","name":"permissions","inputs":[{"name":"","type":"address","internalType":"address"},{"name":"","type":"string","internalType":"string"}],"outputs":[{"name":"","type":"uint256","internalType":"uint256"}],"stateMutability":"view"},{"type":"function","name":"purchaseTicket","inputs":[{"name":"eventId","type":"uint256","internalType":"uint256"}],"outputs":[],"stateMutability":"nonpayable"},{"type":"function","name":"removeAllowedOperation","inputs":[{"name":"operation","type":"string","internalType":"string"}],"outputs":[{"name":"","type":"bool","internalType":"bool"}],"stateMutability":"nonpayable"},{"type":"function","name":"removeRestrictedOperation","inputs":[{"name":"operation","type":"string","internalType":"string"}],"outputs":[{"name":"","type":"bool","internalType":"bool"}],"stateMutability":"nonpayable"},{"type":"function","name":"restrictedOperations","inputs":[{"name":"","type":"string","internalType":"string"}],"outputs":[{"name":"","type":"bool","internalType":"bool"}],"stateMutability":"view"},{"type":"function","name":"setAddressDefaultPermission","inputs":[{"name":"defaultPermission","type":"bool","internalType":"bool"}],"outputs":[{"name":"","type":"bool","internalType":"bool"}],"stateMutability":"nonpayable"},{"type":"function","name":"setOperationDefaultPermission","inputs":[{"name":"defaultPermission","type":"bool","internalType":"bool"}],"outputs":[{"name":"","type":"bool","internalType":"bool"}],"stateMutability":"nonpayable"},{"type":"function","name":"setPermission","inputs":[{"name":"inputData","type":"tuple","internalType":"struct DataPrivacyFramework.InputData","components":[{"name":"caller","type":"address","internalType":"address"},{"name":"operation","type":"string","internalType":"string"},{"name":"active","type":"bool","internalType":"bool"},{"name":"timestampBefore","type":"uint256","internalType":"uint256"},{"name":"timestampAfter","type":"uint256","internalType":"uint256"},{"name":"falseKey","type":"bool","internalType":"bool"},{"name":"trueKey","type":"bool","internalType":"bool"},{"name":"uintParameter","type":"uint256","internalType":"uint256"},{"name":"addressParameter","type":"address","internalType":"address"},{"name":"stringParameter","type":"string","internalType":"string"}]}],"outputs":[{"name":"","type":"bool","internalType":"bool"}],"stateMutability":"nonpayable"},{"type":"function","name":"tickets","inputs":[{"name":"","type":"uint256","internalType":"uint256"}],"outputs":[{"name":"id","type":"uint256","internalType":"uint256"},{"name":"eventId","type":"uint256","internalType":"uint256"},{"name":"owner","type":"address","internalType":"address"},{"name":"paidPrice","type":"uint256","internalType":"uint256"}],"stateMutability":"view"},{"type":"event","name":"EventCreated","inputs":[{"name":"eventId","type":"uint256","indexed":true,"internalType":"uint256"},{"name":"organizer","type":"address","indexed":true,"internalType":"address"},{"name":"name","type":"string","indexed":false,"internalType":"string"}],"anonymous":false},{"type":"event","name":"TicketPurchased","inputs":[{"name":"ticketId","type":"uint256","indexed":true,"internalType":"uint256"},{"name":"eventId","type":"uint256","indexed":true,"internalType":"uint256"},{"name":"owner","type":"address","indexed":true,"internalType":"address"}],"anonymous":false}],"bytecode":{"object":"0x608060405260016005553480156200001657600080fd5b506000805461ffff191681556040516430b236b4b760d91b815281908190819060019081906005019081526040805160209281900383018120805460ff1916941515949094179093556101408301815233835280518082018252600581526430b236b4b760d91b81840152828401526001838201526000606084018190526080840181905260a0840181905260c0840181905260e08401819052610100840181905281519283019091528152610120820152620000d39062000242565b506040805180820182526001808252601560f91b602083015291518291620000fb916200063e565b9081526040805160209281900383018120805460ff19169415159490941790935561014083018152600180845281518083018352818152601560f91b8185015283850152838201526000606084018190526080840181905260a0840181905260c0840181905260e084018190526101008401819052815192830190915281526101208201526200018b9062000242565b50505050506200023b604051806101400160405280336001600160a01b031681526020016040518060400160405280600f81526020016e1bdc17d8dc99585d1957d95d995b9d608a1b815250815260200160011515815260200160008152602001600081526020016000151581526020016000151581526020016000815260200160006001600160a01b03168152602001604051806020016040528060008152508152506200024260201b60201c565b506200082c565b80516001600160a01b031660009081526004602090815260408083209184015190516200027091906200063e565b908152602001604051809103902054600003620004ab5760055482516001600160a01b03166000908152600460209081526040918290209085015191519091620002ba916200063e565b908152602001604051809103902081905550604051806101600160405280600554815260200183600001516001600160a01b03168152602001836020015181526020018360400151151581526020018360a00151151581526020018360c001511515815260200183606001518152602001836080015181526020018360e0015181526020018361010001516001600160a01b031681526020018361012001518152506006600060055481526020019081526020016000206000820151816000015560208201518160010160006101000a8154816001600160a01b0302191690836001600160a01b031602179055506040820151816002019081620003bf919062000714565b506060820151600382018054608085015160a086015161ffff1990921693151561ff0019169390931761010093151584021762ff00001916620100009115159190910217905560c0830151600483015560e0830151600583015582015160068201556101208201516007820180546001600160a01b0319166001600160a01b0390921691909117905561014082015160088201906200045f908262000714565b509050506005600081546200047490620007f6565b9091555081516001600160a01b031660009081526003602052604081208054909190620004a190620007f6565b9091555062000636565b81516001600160a01b0316600090815260046020908152604080832091850151905160069284929091620004e091906200063e565b9081526020016040518091039020548152602001908152602001600020905082604001518015620005165750600381015460ff16155b156200054a5782516001600160a01b0316600090815260036020526040812080549091906200054590620007f6565b909155505b8260400151158015620005615750600381015460ff165b15620005955782516001600160a01b031660009081526003602052604081208054909190620005909062000812565b909155505b6040830151600382018054606086015160048501556080860151600585015560a086015160c087015161ffff1990921693151561ff0019169390931761010093151584021762ff00001916620100009115159190910217905560e084015160068301558301516007820180546001600160a01b0319166001600160a01b03909216919091179055610120830151600882019062000633908262000714565b50505b506001919050565b6000825160005b8181101562000661576020818601810151858301520162000645565b506000920191825250919050565b634e487b7160e01b600052604160045260246000fd5b600181811c908216806200069a57607f821691505b602082108103620006bb57634e487b7160e01b600052602260045260246000fd5b50919050565b601f8211156200070f57600081815260208120601f850160051c81016020861015620006ea5750805b601f850160051c820191505b818110156200070b57828155600101620006f6565b5050505b505050565b81516001600160401b038111156200073057620007306200066f565b620007488162000741845462000685565b84620006c1565b602080601f831160018114620007805760008415620007675750858301515b600019600386901b1c1916600185901b1785556200070b565b600085815260208120601f198616915b82811015620007b15788860151825594840194600190910190840162000790565b5085821015620007d05787850151600019600388901b60f8161c191681555b5050505050600190811b01905550565b634e487b7160e01b600052601160045260246000fd5b6000600182016200080b576200080b620007e0565b5060010190565b600081620008245762000824620007e0565b506000190190565b612dd2806200083c6000396000f3fe608060405234801561001057600080fd5b50600436106101495760003560e01c80630b7914301461014e57806326c500071461017f57806334906a4a146101a9578063372db089146101e7578063476a95ad146101fa57806350b447121461020d57806365c581521461027d5780636619570114610290578063699d7c33146102a657806382dab96e146102b95780638fb009d3146102cc5780639359c287146102e1578063a5fcf162146102f4578063a74d343914610301578063a7804d6514610314578063ade0bee414610334578063b948348c14610347578063c6064b281461035c578063c8d757fd1461036f578063e91066f5146103ab578063efdcec9c146103be578063f28b9f34146103eb578063f5589364146103fd578063f9529ee21461042b578063fa1b3cac1461043e578063fac66f011461045e578063fb83bb731461047e575b600080fd5b61016161015c3660046121f1565b610491565b60405161017699989796959493929190612267565b60405180910390f35b61019261018d3660046121f1565b610570565b6040516101769b9a999897969594939291906122c9565b6101d76101b736600461241c565b805160208183018101805160018252928201919093012091525460ff1681565b6040519015158152602001610176565b6101d76101f53660046124b4565b6106f3565b6101d7610208366004612529565b61071e565b61024e61021b3660046121f1565b6008602052600090815260409020805460018201546002830154600390930154919290916001600160a01b039091169084565b604051610176949392919093845260208401929092526001600160a01b03166040830152606082015260800190565b6101d761028b36600461241c565b610769565b61029861081f565b604051908152602001610176565b6101d76102b436600461254d565b610835565b6101d76102c736600461259f565b61085f565b6102d4610c41565b60405161017691906126a8565b6101d76102ef36600461241c565b610ca2565b6000546101d79060ff1681565b6101d761030f3660046126ec565b610d25565b61029861032236600461276c565b60036020526000908152604090205481565b6101d7610342366004612529565b610d78565b61035a6103553660046121f1565b610dca565b005b6101d761036a366004612787565b611164565b61029861037d3660046127eb565b6004602090815260009283526040909220815180830184018051928152908401929093019190912091525481565b61035a6103b9366004612838565b611186565b6103de604051806040016040528060018152602001601560f91b81525081565b60405161017691906128ae565b6000546101d790610100900460ff1681565b6101d761040b36600461241c565b805160208183018101805160028252928201919093012091525460ff1681565b6101d76104393660046128c1565b61157d565b610446600181565b6040516001600160a01b039091168152602001610176565b61047161046c366004612902565b61162b565b6040516101769190612924565b6101d761048c3660046128c1565b6119a9565b60076020526000908152604090208054600182015460028301805492936001600160a01b03909216926104c390612a2c565b80601f01602080910402602001604051908101604052809291908181526020018280546104ef90612a2c565b801561053c5780601f106105115761010080835404028352916020019161053c565b820191906000526020600020905b81548152906001019060200180831161051f57829003601f168201915b50505060038401546004850154600586015460068701546007880154600890980154969793969295509093509160ff169089565b60066020526000908152604090208054600182015460028301805492936001600160a01b03909216926105a290612a2c565b80601f01602080910402602001604051908101604052809291908181526020018280546105ce90612a2c565b801561061b5780601f106105f05761010080835404028352916020019161061b565b820191906000526020600020905b8154815290600101906020018083116105fe57829003601f168201915b5050505060038301546004840154600585015460068601546007870154600888018054979860ff808816996101008904821699506201000090980416966001600160a01b039093169290919061067090612a2c565b80601f016020809104026020016040519081016040528092919081815260200182805461069c90612a2c565b80156106e95780601f106106be576101008083540402835291602001916106e9565b820191906000526020600020905b8154815290600101906020018083116106cc57829003601f168201915b505050505090508b565b6000610715858585600186600060405180602001604052806000815250611a30565b95945050505050565b6000805482151560ff9091161515036107525760405162461bcd60e51b815260040161074990612a66565b60405180910390fd5b506000805460ff1916911515919091179055600190565b600060028260405161077b9190612a9d565b9081526040519081900360200190205460ff16156107e55760405162461bcd60e51b815260206004820152602160248201527f4450463a204f5045524154494f4e5f414c52454144595f5245535452494354456044820152601160fa1b6064820152608401610749565b60016002836040516107f79190612a9d565b908152604051908190036020019020805491151560ff19909216919091179055506001919050565b600060016005546108309190612acf565b905090565b6000610857848484600080600060405180602001604052806000815250611a30565b949350505050565b80516001600160a01b0316600090815260046020908152604080832091840151905161088b9190612a9d565b908152602001604051809103902054600003610aba5760055482516001600160a01b031660009081526004602090815260409182902090850151915190916108d291612a9d565b908152602001604051809103902081905550604051806101600160405280600554815260200183600001516001600160a01b03168152602001836020015181526020018360400151151581526020018360a00151151581526020018360c001511515815260200183606001518152602001836080015181526020018360e0015181526020018361010001516001600160a01b031681526020018361012001518152506006600060055481526020019081526020016000206000820151816000015560208201518160010160006101000a8154816001600160a01b0302191690836001600160a01b0316021790555060408201518160020190816109d59190612b31565b506060820151600382018054608085015160a086015161ffff1990921693151561ff0019169390931761010093151584021762ff00001916620100009115159190910217905560c0830151600483015560e0830151600583015582015160068201556101208201516007820180546001600160a01b0319166001600160a01b039092169190911790556101408201516008820190610a739082612b31565b50905050600560008154610a8690612bf0565b9091555081516001600160a01b031660009081526003602052604081208054909190610ab190612bf0565b90915550610c39565b81516001600160a01b0316600090815260046020908152604080832091850151905160069284929091610aed9190612a9d565b9081526020016040518091039020548152602001908152602001600020905082604001518015610b225750600381015460ff16155b15610b535782516001600160a01b031660009081526003602052604081208054909190610b4e90612bf0565b909155505b8260400151158015610b695750600381015460ff165b15610b9a5782516001600160a01b031660009081526003602052604081208054909190610b9590612c09565b909155505b6040830151600382018054606086015160048501556080860151600585015560a086015160c087015161ffff1990921693151561ff0019169390931761010093151584021762ff00001916620100009115159190910217905560e084015160068301558301516007820180546001600160a01b0319166001600160a01b039092169190911790556101208301516008820190610c369082612b31565b50505b506001919050565b33600090815260096020908152604091829020805483518184028101840190945280845260609392830182828015610c9857602002820191906000526020600020905b815481526020019060010190808311610c84575b5050505050905090565b6000600182604051610cb49190612a9d565b9081526040519081900360200190205460ff1615610d145760405162461bcd60e51b815260206004820152601e60248201527f4450463a204f5045524154494f4e5f414c52454144595f414c4c4f57454400006044820152606401610749565b600180836040516107f79190612a9d565b6000610d6e868686600360008089898080601f016020809104026020016040519081016040528093929190818152602001838380828437600092019190915250611a3092505050565b9695505050505050565b6000811515600060019054906101000a900460ff16151503610dac5760405162461bcd60e51b815260040161074990612a66565b50600080549115156101000261ff0019909216919091179055600190565b604051806040016040528060128152602001711bdc17dc1d5c98da185cd957dd1a58dad95d60721b8152508160006040518060200160405280600081525082600014610e995760405163372db08960e01b8152309063372db08990610e3790339088908890600401612c20565b602060405180830381865afa158015610e54573d6000803e3d6000fd5b505050506040513d601f19601f82011682018060405250810190610e789190612c54565b610e945760405162461bcd60e51b815260040161074990612c71565b610fb3565b6001600160a01b03821615610ecf576040516318c0c96560e31b8152309063c6064b2890610e3790339088908790600401612c9e565b6040805160008152602081018083528151902091610eef91849101612a9d565b6040516020818303038152906040528051906020012014610f315760405163a74d343960e01b8152309063a74d343990610e3790339088908690600401612cd3565b60405163699d7c3360e01b8152309063699d7c3390610f569033908890600401612d09565b602060405180830381865afa158015610f73573d6000803e3d6000fd5b505050506040513d601f19601f82011682018060405250810190610f979190612c54565b610fb35760405162461bcd60e51b815260040161074990612c71565b60008581526007602052604081205490036110025760405162461bcd60e51b815260206004820152600f60248201526e115d995b9d081b9bdd08199bdd5b99608a1b6044820152606401610749565b600085815260076020526040902060058101546006909101541061105f5760405162461bcd60e51b81526020600482015260146024820152734e6f207469636b65747320617661696c61626c6560601b6044820152606401610749565b6000600b6000815461107090612bf0565b91829055506040805160808101825282815260208082018a81523383850181815260008d815260078086528782206004810154606089019081528a8452600888528984209851895595516001808a019190915593516002890180546001600160a01b0319166001600160a01b0390921691909117905594516003909701969096559182526009845294812080548087018255908252838220018690558b81529290915260060180549394509192611128908490612d2d565b90915550506040513390879083907f94c5953e15f54d38b82a662bdd5739fc91af3a23d3ef7e67269dfaeee71a813c90600090a4505050505050565b6000610715858585600260008760405180602001604052806000815250611a30565b6040518060400160405280600f81526020016e1bdc17d8dc99585d1957d95d995b9d608a1b81525060008060405180602001604052806000815250826000146112525760405163372db08960e01b8152309063372db089906111f090339088908890600401612c20565b602060405180830381865afa15801561120d573d6000803e3d6000fd5b505050506040513d601f19601f820116820180604052508101906112319190612c54565b61124d5760405162461bcd60e51b815260040161074990612c71565b61136c565b6001600160a01b03821615611288576040516318c0c96560e31b8152309063c6064b28906111f090339088908790600401612c9e565b60408051600081526020810180835281519020916112a891849101612a9d565b60405160208183030381529060405280519060200120146112ea5760405163a74d343960e01b8152309063a74d3439906111f090339088908690600401612cd3565b60405163699d7c3360e01b8152309063699d7c339061130f9033908890600401612d09565b602060405180830381865afa15801561132c573d6000803e3d6000fd5b505050506040513d601f19601f820116820180604052508101906113509190612c54565b61136c5760405162461bcd60e51b815260040161074990612c71565b6000600a6000815461137d90612bf0565b9190508190559050604051806101200160405280828152602001336001600160a01b031681526020018c81526020018b81526020018a815260200189815260200160008152602001881515815260200187815250600760008381526020019081526020016000206000820151816000015560208201518160010160006101000a8154816001600160a01b0302191690836001600160a01b0316021790555060408201518160020190816114309190612b31565b50606082015181600301556080820151816004015560a0820151816005015560c0820151816006015560e08201518160070160006101000a81548160ff021916908315150217905550610100820151816008015590505061152d60405180610140016040528060006001600160a01b03168152602001604051806040016040528060128152602001711bdc17dc1d5c98da185cd957dd1a58dad95d60721b8152508152602001600115158152602001600081526020016000815260200160011515815260200160001515815260200183815260200160006001600160a01b031681526020016040518060200160405280600081525081525061085f565b50336001600160a01b0316817ffc695dea2478fb938a11068aeedddd7046a5fe655f136e30a325d353fe187a458d60405161156891906128ae565b60405180910390a35050505050505050505050565b600060018383604051611591929190612d40565b9081526040519081900360200190205460ff166115ed5760405162461bcd60e51b815260206004820152601a6024820152791114118e8813d4115490551253d397d393d517d0531313d5d15160321b6044820152606401610749565b600060018484604051611601929190612d40565b908152604051908190036020019020805491151560ff199092169190911790555060015b92915050565b6060600083116116735760405162461bcd60e51b81526020600482015260136024820152724450463a2053544152545f4944585f5a45524f60681b6044820152606401610749565b600082116116ba5760405162461bcd60e51b81526020600482015260146024820152734450463a204348554e4b5f53495a455f5a45524f60601b6044820152606401610749565b60055483106116fc5760408051600080825260208201909252906116f4565b6116e161217f565b8152602001906001900390816116d95790505b509050611625565b6000600160055461170d9190612acf565b60016117198587612d2d565b6117239190612acf565b111561173c57836005546117379190612acf565b61173e565b825b90506000816001600160401b0381111561175a5761175a612351565b60405190808252806020026020018201604052801561179357816020015b61178061217f565b8152602001906001900390816117785790505b50905060005b828110156119a057600660006117af8389612d2d565b815260208082019290925260409081016000208151610160810183528154815260018201546001600160a01b03169381019390935260028101805491928401916117f890612a2c565b80601f016020809104026020016040519081016040528092919081815260200182805461182490612a2c565b80156118715780601f1061184657610100808354040283529160200191611871565b820191906000526020600020905b81548152906001019060200180831161185457829003601f168201915b5050509183525050600382015460ff8082161515602084015261010080830482161515604085015262010000909204161515606083015260048301546080830152600583015460a0830152600683015460c083015260078301546001600160a01b031660e08301526008830180549190920191906118ee90612a2c565b80601f016020809104026020016040519081016040528092919081815260200182805461191a90612a2c565b80156119675780601f1061193c57610100808354040283529160200191611967565b820191906000526020600020905b81548152906001019060200180831161194a57829003601f168201915b50505050508152505082828151811061198257611982612d50565b6020026020010181905250808061199890612bf0565b915050611799565b50949350505050565b6000600283836040516119bd929190612d40565b9081526040519081900360200190205460ff16611a1c5760405162461bcd60e51b815260206004820152601d60248201527f4450463a204f5045524154494f4e5f4e4f545f524553545249435445440000006044820152606401610749565b600060028484604051611601929190612d40565b600060028787604051611a44929190612d40565b9081526040519081900360200190205460ff1615611a6457506000611f95565b6040805180820182526001808252601560f91b60208301529151611a889190612a9d565b9081526040519081900360200190205460ff16158015611aca575060018787604051611ab5929190612d40565b9081526040519081900360200190205460ff16155b15611ad757506000611f95565b6001600160a01b03881660009081526004602052604080822090516006929190611b04908b908b90612d40565b908152604080516020928190038301902054835290820192909252016000206003015460ff1615611d5a576001600160a01b0388166000908152600460205260408082209051611d53926006929091611b60908c908c90612d40565b908152602001604051809103902054815260200190815260200160002060405180610160016040529081600082015481526020016001820160009054906101000a90046001600160a01b03166001600160a01b03166001600160a01b03168152602001600282018054611bd290612a2c565b80601f0160208091040260200160405190810160405280929190818152602001828054611bfe90612a2c565b8015611c4b5780601f10611c2057610100808354040283529160200191611c4b565b820191906000526020600020905b815481529060010190602001808311611c2e57829003601f168201915b5050509183525050600382015460ff8082161515602084015261010080830482161515604085015262010000909204161515606083015260048301546080830152600583015460a0830152600683015460c083015260078301546001600160a01b031660e0830152600883018054919092019190611cc890612a2c565b80601f0160208091040260200160405190810160405280929190818152602001828054611cf490612a2c565b8015611d415780601f10611d1657610100808354040283529160200191611d41565b820191906000526020600020905b815481529060010190602001808311611d2457829003601f168201915b50505050508152505086868686611fa0565b9050611f95565b6001600160a01b03881660009081526004602090815260408083208151808301835260018152601560f91b93810193909352905160069392611d9b91612a9d565b908152604080516020928190038301902054835290820192909252016000206003015460ff1615611e1957611d5360066000600460008c6001600160a01b03166001600160a01b03168152602001908152602001600020604051806040016040528060018152602001601560f91b815250604051611b609190612a9d565b6001600160a01b03881660009081526003602052604090205415611e485750600054610100900460ff16611f95565b60016000908152600460205260405160069190600080516020612d7d83398151915290611e78908b908b90612d40565b908152604080516020928190038301902054835290820192909252016000206003015460ff1615611ed657600160009081526004602052604051611d5391600691600080516020612d7d83398151915290611b60908c908c90612d40565b6001600081815260046020908152604080518082018252938452601560f91b9184019190915251600692600080516020612d7d83398151915291611f1a9190612a9d565b908152604080516020928190038301902054835290820192909252016000206003015460ff1615611f8d576001600081815260046020908152604080518082018252938452601560f91b9184019190915251611d539260069291600080516020612d7d83398151915291611b6091612a9d565b5060005460ff165b979650505050505050565b6000856080015115611fb457506000610715565b8560a0015115611fc657506001610715565b60008660c00151118015611fdd5750428660c00151105b15611fea57506000610715565b60008660e001511180156120015750428660e00151115b1561200e57506000610715565b600185600381111561202257612022612d66565b148015612033575061010086015115155b801561204457508386610100015114155b1561205157506000610715565b600285600381111561206557612065612d66565b14801561207f57506101208601516001600160a01b031615155b80156120a25750826001600160a01b03168661012001516001600160a01b031614155b156120af57506000610715565b60038560038111156120c3576120c3612d66565b14801561210957506040805160008152602081018083528151902061014089015190926120f09201612a9d565b6040516020818303038152906040528051906020012014155b80156121665750816040516020016121219190612a9d565b6040516020818303038152906040528051906020012086610140015160405160200161214d9190612a9d565b6040516020818303038152906040528051906020012014155b1561217357506000610715565b50600195945050505050565b6040518061016001604052806000815260200160006001600160a01b031681526020016060815260200160001515815260200160001515815260200160001515815260200160008152602001600081526020016000815260200160006001600160a01b03168152602001606081525090565b60006020828403121561220357600080fd5b5035919050565b6001600160a01b03169052565b60005b8381101561223257818101518382015260200161221a565b50506000910152565b60008151808452612253816020860160208601612217565b601f01601f19169290920160200192915050565b8981526001600160a01b0389166020820152610120604082018190526000906122928382018b61223b565b60608401999099525050608081019590955260a085019390935260c0840191909152151560e0830152610100909101529392505050565b8b81526001600160a01b038b81166020830152610160604083018190526000916122f58483018e61223b565b91508b151560608501528a1515608085015289151560a08501528860c08501528760e0850152866101008501528086166101208501525082810361014084015261233f818561223b565b9e9d5050505050505050505050505050565b634e487b7160e01b600052604160045260246000fd5b60405161014081016001600160401b038111828210171561238a5761238a612351565b60405290565b600082601f8301126123a157600080fd5b81356001600160401b03808211156123bb576123bb612351565b604051601f8301601f19908116603f011681019082821181831017156123e3576123e3612351565b816040528381528660208588010111156123fc57600080fd5b836020870160208301376000602085830101528094505050505092915050565b60006020828403121561242e57600080fd5b81356001600160401b0381111561244457600080fd5b61085784828501612390565b80356001600160a01b038116811461246757600080fd5b919050565b60008083601f84011261247e57600080fd5b5081356001600160401b0381111561249557600080fd5b6020830191508360208285010111156124ad57600080fd5b9250929050565b600080600080606085870312156124ca57600080fd5b6124d385612450565b935060208501356001600160401b038111156124ee57600080fd5b6124fa8782880161246c565b9598909750949560400135949350505050565b801515811461251b57600080fd5b50565b80356124678161250d565b60006020828403121561253b57600080fd5b81356125468161250d565b9392505050565b60008060006040848603121561256257600080fd5b61256b84612450565b925060208401356001600160401b0381111561258657600080fd5b6125928682870161246c565b9497909650939450505050565b6000602082840312156125b157600080fd5b81356001600160401b03808211156125c857600080fd5b9083019061014082860312156125dd57600080fd5b6125e5612367565b6125ee83612450565b815260208301358281111561260257600080fd5b61260e87828601612390565b6020830152506126206040840161251e565b6040820152606083013560608201526080830135608082015261264560a0840161251e565b60a082015261265660c0840161251e565b60c082015260e083013560e0820152610100612673818501612450565b90820152610120838101358381111561268b57600080fd5b61269788828701612390565b918301919091525095945050505050565b6020808252825182820181905260009190848201906040850190845b818110156126e0578351835292840192918401916001016126c4565b50909695505050505050565b60008060008060006060868803121561270457600080fd5b61270d86612450565b945060208601356001600160401b038082111561272957600080fd5b61273589838a0161246c565b9096509450604088013591508082111561274e57600080fd5b5061275b8882890161246c565b969995985093965092949392505050565b60006020828403121561277e57600080fd5b61254682612450565b6000806000806060858703121561279d57600080fd5b6127a685612450565b935060208501356001600160401b038111156127c157600080fd5b6127cd8782880161246c565b90945092506127e0905060408601612450565b905092959194509250565b600080604083850312156127fe57600080fd5b61280783612450565b915060208301356001600160401b0381111561282257600080fd5b61282e85828601612390565b9150509250929050565b60008060008060008060c0878903121561285157600080fd5b86356001600160401b0381111561286757600080fd5b61287389828a01612390565b96505060208701359450604087013593506060870135925060808701356128998161250d565b8092505060a087013590509295509295509295565b602081526000612546602083018461223b565b600080602083850312156128d457600080fd5b82356001600160401b038111156128ea57600080fd5b6128f68582860161246c565b90969095509350505050565b6000806040838503121561291557600080fd5b50508035926020909101359150565b60006020808301818452808551808352604092508286019150828160051b87010184880160005b83811015612a1e57603f19898403018552815161016081518552888201516129758a87018261220a565b5087820151818987015261298b8287018261223b565b9150506060808301516129a18288018215159052565b505060808281015115159086015260a08083015115159086015260c0808301519086015260e080830151908601526101008083015190860152610120808301516129ed8288018261220a565b50506101408083015192508582038187015250612a0a818361223b565b96890196945050509086019060010161294b565b509098975050505050505050565b600181811c90821680612a4057607f821691505b602082108103612a6057634e487b7160e01b600052602260045260246000fd5b50919050565b6020808252601e908201527f4450463a20494e56414c49445f5045524d495353494f4e5f4348414e47450000604082015260600190565b60008251612aaf818460208701612217565b9190910192915050565b634e487b7160e01b600052601160045260246000fd5b8181038181111561162557611625612ab9565b601f821115612b2c57600081815260208120601f850160051c81016020861015612b095750805b601f850160051c820191505b81811015612b2857828155600101612b15565b5050505b505050565b81516001600160401b03811115612b4a57612b4a612351565b612b5e81612b588454612a2c565b84612ae2565b602080601f831160018114612b935760008415612b7b5750858301515b600019600386901b1c1916600185901b178555612b28565b600085815260208120601f198616915b82811015612bc257888601518255948401946001909101908401612ba3565b5085821015612be05787850151600019600388901b60f8161c191681555b5050505050600190811b01905550565b600060018201612c0257612c02612ab9565b5060010190565b600081612c1857612c18612ab9565b506000190190565b6001600160a01b0384168152606060208201819052600090612c449083018561223b565b9050826040830152949350505050565b600060208284031215612c6657600080fd5b81516125468161250d565b6020808252601390820152724450463a204e6f205065726d697373696f6e2160681b604082015260600190565b600060018060a01b03808616835260606020840152612cc0606084018661223b565b9150808416604084015250949350505050565b6001600160a01b0384168152606060208201819052600090612cf79083018561223b565b8281036040840152610d6e818561223b565b6001600160a01b03831681526040602082018190526000906108579083018461223b565b8082018082111561162557611625612ab9565b8183823760009101908152919050565b634e487b7160e01b600052603260045260246000fd5b634e487b7160e01b600052602160045260246000fdfeabd6e7cb50984ff9c2f3e18a2660c3353dadf4e3291deeb275dae2cd1e44fe05a264697066735822122098c12049140e39b52b3e3a2654830cb07513aef7858745550e727b3433dd836064736f6c63430008130033","linkReferences":{}},"methodIdentifiers":{"ADDRESS_ALL()":"fa1b3cac","STRING_ALL()":"efdcec9c","activePermissions(address)":"a7804d65","addAllowedOperation(string)":"9359c287","addRestrictedOperation(string)":"65c58152","addressDefaultPermission()":"a5fcf162","allowedOperations(string)":"34906a4a","conditions(uint256)":"26c50007","createEvent(string,uint256,uint256,uint256,bool,uint256)":"e91066f5","events(uint256)":"0b791430","getConditions(uint256,uint256)":"fac66f01","getConditionsCount()":"66195701","getMyTicketIds()":"8fb009d3","isOperationAllowed(address,string)":"699d7c33","isOperationAllowed(address,string,address)":"c6064b28","isOperationAllowed(address,string,string)":"a74d3439","isOperationAllowed(address,string,uint256)":"372db089","operationDefaultPermission()":"f28b9f34","permissions(address,string)":"c8d757fd","purchaseTicket(uint256)":"b948348c","removeAllowedOperation(string)":"f9529ee2","removeRestrictedOperation(string)":"fb83bb73","restrictedOperations(string)":"f5589364","setAddressDefaultPermission(bool)":"476a95ad","setOperationDefaultPermission(bool)":"ade0bee4","setPermission((address,string,bool,uint256,uint256,bool,bool,uint256,address,string))":"82dab96e","tickets(uint256)":"50b44712"},"id":0}