{"abi":[{"type":"function","name":"RSA_SIZE","inputs":[],"outputs":[{"name":"","type":"uint256","internalType":"uint256"}],"stateMutability":"view"}],"bytecode":{"object":"0x6088610038600b82828239805160001a607314602b57634e487b7160e01b600052600060045260246000fd5b30600052607381538281f3fe730000000000000000000000000000000000000000301460806040526004361060335760003560e01c806331b943d5146038575b600080fd5b604061010081565b60405190815260200160405180910390f3fea26469706673582212206111899a053a919703ab18639f3c4af1da583a3fcb339061d6f8589f730804e764736f6c63430008130033","linkReferences":{}},"methodIdentifiers":{"RSA_SIZE()":"31b943d5"},"id":3}