{"abi":[{"type":"constructor","inputs":[],"stateMutability":"nonpayable"},{"type":"function","name":"ADDRESS_ALL","inputs":[],"outputs":[{"name":"","type":"address","internalType":"address"}],"stateMutability":"view"},{"type":"function","name":"STRING_ALL","inputs":[],"outputs":[{"name":"","type":"string","internalType":"string"}],"stateMutability":"view"},{"type":"function","name":"activePermissions","inputs":[{"name":"","type":"address","internalType":"address"}],"outputs":[{"name":"","type":"uint256","internalType":"uint256"}],"stateMutability":"view"},{"type":"function","name":"addAllowedOperation","inputs":[{"name":"operation","type":"string","internalType":"string"}],"outputs":[{"name":"","type":"bool","internalType":"bool"}],"stateMutability":"nonpayable"},{"type":"function","name":"addRestrictedOperation","inputs":[{"name":"operation","type":"string","internalType":"string"}],"outputs":[{"name":"","type":"bool","internalType":"bool"}],"stateMutability":"nonpayable"},{"type":"function","name":"addressDefaultPermission","inputs":[],"outputs":[{"name":"","type":"bool","internalType":"bool"}],"stateMutability":"view"},{"type":"function","name":"allowedOperations","inputs":[{"name":"","type":"string","internalType":"string"}],"outputs":[{"name":"","type":"bool","internalType":"bool"}],"stateMutability":"view"},{"type":"function","name":"checkPurchasePermission","inputs":[{"name":"user","type":"address","internalType":"address"},{"name":"eventId","type":"uint256","internalType":"uint256"}],"outputs":[{"name":"","type":"bool","internalType":"bool"}],"stateMutability":"view"},{"type":"function","name":"conditions","inputs":[{"name":"","type":"uint256","internalType":"uint256"}],"outputs":[{"name":"id","type":"uint256","internalType":"uint256"},{"name":"caller","type":"address","internalType":"address"},{"name":"operation","type":"string","internalType":"string"},{"name":"active","type":"bool","internalType":"bool"},{"name":"falseKey","type":"bool","internalType":"bool"},{"name":"trueKey","type":"bool","internalType":"bool"},{"name":"timestampBefore","type":"uint256","internalType":"uint256"},{"name":"timestampAfter","type":"uint256","internalType":"uint256"},{"name":"uintParameter","type":"uint256","internalType":"uint256"},{"name":"addressParameter","type":"address","internalType":"address"},{"name":"stringParameter","type":"string","internalType":"string"}],"stateMutability":"view"},{"type":"function","name":"createEvent","inputs":[{"name":"name","type":"string","internalType":"string"},{"name":"eventDate","type":"uint256","internalType":"uint256"},{"name":"price","type":"tuple","internalType":"struct itUint64","components":[{"name":"ciphertext","type":"uint256","internalType":"ctUint64"},{"name":"signature","type":"bytes","internalType":"bytes"}]},{"name":"totalSupply","type":"tuple","internalType":"struct itUint64","components":[{"name":"ciphertext","type":"uint256","internalType":"ctUint64"},{"name":"signature","type":"bytes","internalType":"bytes"}]},{"name":"resaleAllowed","type":"bool","internalType":"bool"},{"name":"resaleMarkup","type":"tuple","internalType":"struct itUint64","components":[{"name":"ciphertext","type":"uint256","internalType":"ctUint64"},{"name":"signature","type":"bytes","internalType":"bytes"}]}],"outputs":[],"stateMutability":"nonpayable"},{"type":"function","name":"debugPurchaseTicketNoPermission","inputs":[{"name":"eventId","type":"uint256","internalType":"uint256"}],"outputs":[],"stateMutability":"nonpayable"},{"type":"function","name":"events","inputs":[{"name":"","type":"uint256","internalType":"uint256"}],"outputs":[{"name":"eventId","type":"uint256","internalType":"uint256"},{"name":"organizer","type":"address","internalType":"address"},{"name":"name","type":"string","internalType":"string"},{"name":"eventDate","type":"uint256","internalType":"uint256"},{"name":"encryptedPrice","type":"uint256","internalType":"ctUint64"},{"name":"encryptedTotalSupply","type":"uint256","internalType":"ctUint64"},{"name":"encryptedTicketsSold","type":"uint256","internalType":"ctUint64"},{"name":"resaleAllowed","type":"bool","internalType":"bool"},{"name":"encryptedResaleMarkup","type":"uint256","internalType":"ctUint64"}],"stateMutability":"view"},{"type":"function","name":"getConditions","inputs":[{"name":"startIdx","type":"uint256","internalType":"uint256"},{"name":"chunkSize","type":"uint256","internalType":"uint256"}],"outputs":[{"name":"","type":"tuple[]","internalType":"struct DataPrivacyFramework.Condition[]","components":[{"name":"id","type":"uint256","internalType":"uint256"},{"name":"caller","type":"address","internalType":"address"},{"name":"operation","type":"string","internalType":"string"},{"name":"active","type":"bool","internalType":"bool"},{"name":"falseKey","type":"bool","internalType":"bool"},{"name":"trueKey","type":"bool","internalType":"bool"},{"name":"timestampBefore","type":"uint256","internalType":"uint256"},{"name":"timestampAfter","type":"uint256","internalType":"uint256"},{"name":"uintParameter","type":"uint256","internalType":"uint256"},{"name":"addressParameter","type":"address","internalType":"address"},{"name":"stringParameter","type":"string","internalType":"string"}]}],"stateMutability":"view"},{"type":"function","name":"getConditionsCount","inputs":[],"outputs":[{"name":"","type":"uint256","internalType":"uint256"}],"stateMutability":"view"},{"type":"function","name":"getMyTicketIds","inputs":[],"outputs":[{"name":"","type":"uint256[]","internalType":"uint256[]"}],"stateMutability":"view"},{"type":"function","name":"getMyTicketPrice","inputs":[{"name":"ticketId","type":"uint256","internalType":"uint256"}],"outputs":[],"stateMutability":"nonpayable"},{"type":"function","name":"isOperationAllowed","inputs":[{"name":"caller","type":"address","internalType":"address"},{"name":"operation","type":"string","internalType":"string"},{"name":"uintParameter","type":"uint256","internalType":"uint256"}],"outputs":[{"name":"","type":"bool","internalType":"bool"}],"stateMutability":"view"},{"type":"function","name":"isOperationAllowed","inputs":[{"name":"caller","type":"address","internalType":"address"},{"name":"operation","type":"string","internalType":"string"}],"outputs":[{"name":"","type":"bool","internalType":"bool"}],"stateMutability":"view"},{"type":"function","name":"isOperationAllowed","inputs":[{"name":"caller","type":"address","internalType":"address"},{"name":"operation","type":"string","internalType":"string"},{"name":"stringParameter","type":"string","internalType":"string"}],"outputs":[{"name":"","type":"bool","internalType":"bool"}],"stateMutability":"view"},{"type":"function","name":"isOperationAllowed","inputs":[{"name":"caller","type":"address","internalType":"address"},{"name":"operation","type":"string","internalType":"string"},{"name":"addressParameter","type":"address","internalType":"address"}],"outputs":[{"name":"","type":"bool","internalType":"bool"}],"stateMutability":"view"},{"type":"function","name":"operationDefaultPermission","inputs":[],"outputs":[{"name":"","type":"bool","internalType":"bool"}],"stateMutability":"view"},{"type":"function","name":"permissions","inputs":[{"name":"","type":"address","internalType":"address"},{"name":"","type":"string","internalType":"string"}],"outputs":[{"name":"","type":"uint256","internalType":"uint256"}],"stateMutability":"view"},{"type":"function","name":"proveOwnership","inputs":[{"name":"ticketId","type":"uint256","internalType":"uint256"}],"outputs":[],"stateMutability":"nonpayable"},{"type":"function","name":"purchaseTicket","inputs":[{"name":"eventId","type":"uint256","internalType":"uint256"}],"outputs":[],"stateMutability":"nonpayable"},{"type":"function","name":"purchaseTicketSimple","inputs":[{"name":"eventId","type":"uint256","internalType":"uint256"}],"outputs":[],"stateMutability":"nonpayable"},{"type":"function","name":"removeAllowedOperation","inputs":[{"name":"operation","type":"string","internalType":"string"}],"outputs":[{"name":"","type":"bool","internalType":"bool"}],"stateMutability":"nonpayable"},{"type":"function","name":"removeRestrictedOperation","inputs":[{"name":"operation","type":"string","internalType":"string"}],"outputs":[{"name":"","type":"bool","internalType":"bool"}],"stateMutability":"nonpayable"},{"type":"function","name":"restrictedOperations","inputs":[{"name":"","type":"string","internalType":"string"}],"outputs":[{"name":"","type":"bool","internalType":"bool"}],"stateMutability":"view"},{"type":"function","name":"setAddressDefaultPermission","inputs":[{"name":"defaultPermission","type":"bool","internalType":"bool"}],"outputs":[{"name":"","type":"bool","internalType":"bool"}],"stateMutability":"nonpayable"},{"type":"function","name":"setOperationDefaultPermission","inputs":[{"name":"defaultPermission","type":"bool","internalType":"bool"}],"outputs":[{"name":"","type":"bool","internalType":"bool"}],"stateMutability":"nonpayable"},{"type":"function","name":"setPermission","inputs":[{"name":"inputData","type":"tuple","internalType":"struct DataPrivacyFramework.InputData","components":[{"name":"caller","type":"address","internalType":"address"},{"name":"operation","type":"string","internalType":"string"},{"name":"active","type":"bool","internalType":"bool"},{"name":"timestampBefore","type":"uint256","internalType":"uint256"},{"name":"timestampAfter","type":"uint256","internalType":"uint256"},{"name":"falseKey","type":"bool","internalType":"bool"},{"name":"trueKey","type":"bool","internalType":"bool"},{"name":"uintParameter","type":"uint256","internalType":"uint256"},{"name":"addressParameter","type":"address","internalType":"address"},{"name":"stringParameter","type":"string","internalType":"string"}]}],"outputs":[{"name":"","type":"bool","internalType":"bool"}],"stateMutability":"nonpayable"},{"type":"function","name":"tickets","inputs":[{"name":"","type":"uint256","internalType":"uint256"}],"outputs":[{"name":"ticketId","type":"uint256","internalType":"uint256"},{"name":"eventId","type":"uint256","internalType":"uint256"},{"name":"owner","type":"address","internalType":"address"},{"name":"encryptedPurchasePrice","type":"uint256","internalType":"ctUint64"}],"stateMutability":"view"},{"type":"function","name":"transferTicket","inputs":[{"name":"ticketId","type":"uint256","internalType":"uint256"},{"name":"to","type":"address","internalType":"address"}],"outputs":[],"stateMutability":"nonpayable"},{"type":"event","name":"DebugLog","inputs":[{"name":"message","type":"string","indexed":false,"internalType":"string"},{"name":"user","type":"address","indexed":false,"internalType":"address"},{"name":"value","type":"uint256","indexed":false,"internalType":"uint256"}],"anonymous":false},{"type":"event","name":"EncryptedValueForUser","inputs":[{"name":"user","type":"address","indexed":true,"internalType":"address"},{"name":"value","type":"uint256","indexed":false,"internalType":"ctUint64"}],"anonymous":false},{"type":"event","name":"EventCreated","inputs":[{"name":"eventId","type":"uint256","indexed":true,"internalType":"uint256"},{"name":"organizer","type":"address","indexed":true,"internalType":"address"},{"name":"name","type":"string","indexed":false,"internalType":"string"}],"anonymous":false},{"type":"event","name":"OwnershipProof","inputs":[{"name":"ticketId","type":"uint256","indexed":true,"internalType":"uint256"},{"name":"owner","type":"address","indexed":true,"internalType":"address"},{"name":"encryptedProof","type":"uint256","indexed":false,"internalType":"ctUint64"}],"anonymous":false},{"type":"event","name":"PermissionCheck","inputs":[{"name":"user","type":"address","indexed":false,"internalType":"address"},{"name":"operation","type":"string","indexed":false,"internalType":"string"},{"name":"eventId","type":"uint256","indexed":false,"internalType":"uint256"},{"name":"hasPermission","type":"bool","indexed":false,"internalType":"bool"}],"anonymous":false},{"type":"event","name":"TicketPurchased","inputs":[{"name":"ticketId","type":"uint256","indexed":true,"internalType":"uint256"},{"name":"eventId","type":"uint256","indexed":true,"internalType":"uint256"},{"name":"owner","type":"address","indexed":true,"internalType":"address"}],"anonymous":false},{"type":"event","name":"TicketTransferred","inputs":[{"name":"ticketId","type":"uint256","indexed":true,"internalType":"uint256"},{"name":"from","type":"address","indexed":true,"internalType":"address"},{"name":"to","type":"address","indexed":true,"internalType":"address"}],"anonymous":false},{"type":"error","name":"EventNotFound","inputs":[]},{"type":"error","name":"InvalidRecipient","inputs":[]},{"type":"error","name":"NotOwner","inputs":[]},{"type":"error","name":"PermissionDenied","inputs":[{"name":"user","type":"address","internalType":"address"},{"name":"operation","type":"string","internalType":"string"}]},{"type":"error","name":"PurchaseCheckFailed","inputs":[]},{"type":"error","name":"TicketsNotAvailable","inputs":[]}],"bytecode":{"object":"0x608060405260016005553480156200001657600080fd5b506000805461ffff191681556040516430b236b4b760d91b815281908190819060019081906005019081526040805160209281900383018120805460ff1916941515949094179093556101408301815233835280518082018252600581526430b236b4b760d91b81840152828401526001838201526000606084018190526080840181905260a0840181905260c0840181905260e08401819052610100840181905281519283019091528152610120820152620000d3906200030c565b506040805180820182526001808252601560f91b602083015291518291620000fb9162000708565b9081526040805160209281900383018120805460ff19169415159490941790935561014083018152600180845281518083018352818152601560f91b8185015283850152838201526000606084018190526080840181905260a0840181905260c0840181905260e084018190526101008401819052815192830190915281526101208201526200018b906200030c565b50506040805160608082526012908201527110dbdb9cdd1c9d58dd1bdc8818d85b1b195960721b608082015233602082015260009181019190915260008051602062004aa1833981519152935060a0019150620001e59050565b60405180910390a162000298604051806101400160405280336001600160a01b031681526020016040518060400160405280600f81526020016e1bdc17d8dc99585d1957d95d995b9d608a1b815250815260200160011515815260200160008152602001600081526020016000151581526020016000151581526020016000815260200160006001600160a01b03168152602001604051806020016040528060008152508152506200030c60201b60201c565b506040805160608082526028908201527f437265617465206576656e74207065726d697373696f6e2073657420666f72206080820152673232b83637bcb2b960c11b60a0820152336020820152600081830152905160008051602062004aa18339815191529181900360c00190a1620008f6565b80516001600160a01b031660009081526004602090815260408083209184015190516200033a919062000708565b908152602001604051809103902054600003620005755760055482516001600160a01b03166000908152600460209081526040918290209085015191519091620003849162000708565b908152602001604051809103902081905550604051806101600160405280600554815260200183600001516001600160a01b03168152602001836020015181526020018360400151151581526020018360a00151151581526020018360c001511515815260200183606001518152602001836080015181526020018360e0015181526020018361010001516001600160a01b031681526020018361012001518152506006600060055481526020019081526020016000206000820151816000015560208201518160010160006101000a8154816001600160a01b0302191690836001600160a01b031602179055506040820151816002019081620004899190620007de565b506060820151600382018054608085015160a086015161ffff1990921693151561ff0019169390931761010093151584021762ff00001916620100009115159190910217905560c0830151600483015560e0830151600583015582015160068201556101208201516007820180546001600160a01b0319166001600160a01b039092169190911790556101408201516008820190620005299082620007de565b509050506005600081546200053e90620008c0565b9091555081516001600160a01b0316600090815260036020526040812080549091906200056b90620008c0565b9091555062000700565b81516001600160a01b0316600090815260046020908152604080832091850151905160069284929091620005aa919062000708565b9081526020016040518091039020548152602001908152602001600020905082604001518015620005e05750600381015460ff16155b15620006145782516001600160a01b0316600090815260036020526040812080549091906200060f90620008c0565b909155505b82604001511580156200062b5750600381015460ff165b156200065f5782516001600160a01b0316600090815260036020526040812080549091906200065a90620008dc565b909155505b6040830151600382018054606086015160048501556080860151600585015560a086015160c087015161ffff1990921693151561ff0019169390931761010093151584021762ff00001916620100009115159190910217905560e084015160068301558301516007820180546001600160a01b0319166001600160a01b039092169190911790556101208301516008820190620006fd9082620007de565b50505b506001919050565b6000825160005b818110156200072b57602081860181015185830152016200070f565b506000920191825250919050565b634e487b7160e01b600052604160045260246000fd5b600181811c908216806200076457607f821691505b6020821081036200078557634e487b7160e01b600052602260045260246000fd5b50919050565b601f821115620007d957600081815260208120601f850160051c81016020861015620007b45750805b601f850160051c820191505b81811015620007d557828155600101620007c0565b5050505b505050565b81516001600160401b03811115620007fa57620007fa62000739565b62000812816200080b84546200074f565b846200078b565b602080601f8311600181146200084a5760008415620008315750858301515b600019600386901b1c1916600185901b178555620007d5565b600085815260208120601f198616915b828110156200087b578886015182559484019460019091019084016200085a565b50858210156200089a5787850151600019600388901b60f8161c191681555b5050505050600190811b01905550565b634e487b7160e01b600052601160045260246000fd5b600060018201620008d557620008d5620008aa565b5060010190565b600081620008ee57620008ee620008aa565b506000190190565b61419b80620009066000396000f3fe608060405234801561001057600080fd5b506004361061018b5760003560e01c80630b79143014610190578063105c479a146101c157806326c50007146101d657806334906a4a14610200578063372db0891461023e578063376656be14610251578063476a95ad1461026457806350b447121461027757806365c58152146102e757806366195701146102fa578063679ebf1a14610310578063699d7c331461032357806382dab96e146103365780638fb009d3146103495780639359c2871461035e578063a5fcf16214610371578063a74d34391461037e578063a7804d6514610391578063ade0bee4146103b1578063b948348c146103c4578063c6064b28146103d7578063c8d757fd146103ea578063cd5468a714610426578063cec2150414610439578063e83627fa1461044c578063eb488c1b1461045f578063efdcec9c14610472578063f28b9f341461049f578063f5589364146104b1578063f9529ee2146104df578063fa1b3cac146104f2578063fac66f0114610512578063fb83bb7314610532575b600080fd5b6101a361019e366004613393565b610545565b6040516101b899989796959493929190613409565b60405180910390f35b6101d46101cf366004613393565b610624565b005b6101e96101e4366004613393565b610acb565b6040516101b89b9a9998979695949392919061346b565b61022e61020e3660046135c7565b805160208183018101805160018252928201919093012091525460ff1681565b60405190151581526020016101b8565b61022e61024c36600461365f565b610c4e565b61022e61025f3660046136b8565b610c79565b61022e6102723660046136fe565b610c82565b6102b8610285366004613393565b6008602052600090815260409020805460018201546002830154600390930154919290916001600160a01b039091169084565b6040516101b8949392919093845260208401929092526001600160a01b03166040830152606082015260800190565b61022e6102f53660046135c7565b610cc4565b610302610d7a565b6040519081526020016101b8565b6101d461031e36600461371b565b610d90565b61022e610331366004613747565b61106b565b61022e610344366004613799565b611095565b610351611477565b6040516101b891906138a2565b61022e61036c3660046135c7565b6114d8565b60005461022e9060ff1681565b61022e61038c3660046138e6565b61155b565b61030261039f366004613966565b60036020526000908152604090205481565b61022e6103bf3660046136fe565b6115ae565b6101d46103d2366004613393565b611600565b61022e6103e5366004613981565b6117c8565b6103026103f83660046139e5565b6004602090815260009283526040909220815180830184018051928152908401929093019190912091525481565b6101d4610434366004613a4a565b6117ea565b6101d4610447366004613393565b611d81565b6101d461045a366004613393565b611f1f565b6101d461046d366004613393565b6120e6565b610492604051806040016040528060018152602001601560f91b81525081565b6040516101b89190613b0f565b60005461022e90610100900460ff1681565b61022e6104bf3660046135c7565b805160208183018101805160028252928201919093012091525460ff1681565b61022e6104ed366004613b22565b612440565b6104fa600181565b6040516001600160a01b0390911681526020016101b8565b610525610520366004613b63565b6124ed565b6040516101b89190613b85565b61022e610540366004613b22565b61286b565b60076020526000908152604090208054600182015460028301805492936001600160a01b039092169261057790613c8d565b80601f01602080910402602001604051908101604052809291908181526020018280546105a390613c8d565b80156105f05780601f106105c5576101008083540402835291602001916105f0565b820191906000526020600020905b8154815290600101906020018083116105d357829003601f168201915b50505060038401546004850154600586015460068701546007880154600890980154969793969295509093509160ff169089565b604051806040016040528060128152602001711bdc17dc1d5c98da185cd957dd1a58dad95d60721b81525081600060405180602001604052806000815250826000146106fc5760405163372db08960e01b8152309063372db0899061069190339088908890600401613cc1565b602060405180830381865afa1580156106ae573d6000803e3d6000fd5b505050506040513d601f19601f820116820180604052508101906106d29190613cf5565b6106f75760405162461bcd60e51b81526004016106ee90613d12565b60405180910390fd5b610816565b6001600160a01b03821615610732576040516318c0c96560e31b8152309063c6064b289061069190339088908790600401613d3f565b604080516000815260208101808352815190209161075291849101613d74565b60405160208183030381529060405280519060200120146107945760405163a74d343960e01b8152309063a74d34399061069190339088908690600401613d90565b60405163699d7c3360e01b8152309063699d7c33906107b99033908890600401613dc6565b602060405180830381865afa1580156107d6573d6000803e3d6000fd5b505050506040513d601f19601f820116820180604052508101906107fa9190613cf5565b6108165760405162461bcd60e51b81526004016106ee90613d12565b604080516060808252602b908201527f70757263686173655469636b657453696d706c652063616c6c6564207769746860808201526a103832b936b4b9b9b4b7b760a91b60a08201523360208201529081018690526000805160206141268339815191529060c00160405180910390a16000858152600760205260408120805490910361091e576040805160608082526022908201527f4576656e74206e6f7420666f756e6420696e2073696d706c6520707572636861608082015261736560f01b60a08201523360208201529081018790526000805160206141268339815191529060c0015b60405180910390a1604051635add554360e01b815260040160405180910390fd5b604080516060808252602f908201527f4576656e7420666f756e642c206372656174696e67207469636b65742077697460808201526e686f7574204d504320636865636b7360881b60a08201523360208201529081018790526000805160206141268339815191529060c00160405180910390a16000600b600081546109a390613e00565b9182905550604080516080808201835283825260208083018c81523384860181815260048a0154606080880191825260008a8152600887528981209851895594516001808a019190915592516002890180546001600160a01b0319166001600160a01b03909216919091179055905160039097019690965581835260098452868320805491820181558352918390209091018690558451848152601b948101949094527a5469636b65742063726561746564207375636365737366756c6c7960281b928401929092528201529081018290529091506000805160206141268339815191529060a00160405180910390a16040513390889083907f94c5953e15f54d38b82a662bdd5739fc91af3a23d3ef7e67269dfaeee71a813c90600090a450505050505050565b60066020526000908152604090208054600182015460028301805492936001600160a01b0390921692610afd90613c8d565b80601f0160208091040260200160405190810160405280929190818152602001828054610b2990613c8d565b8015610b765780601f10610b4b57610100808354040283529160200191610b76565b820191906000526020600020905b815481529060010190602001808311610b5957829003601f168201915b5050505060038301546004840154600585015460068601546007870154600888018054979860ff808816996101008904821699506201000090980416966001600160a01b0390931692909190610bcb90613c8d565b80601f0160208091040260200160405190810160405280929190818152602001828054610bf790613c8d565b8015610c445780601f10610c1957610100808354040283529160200191610c44565b820191906000526020600020905b815481529060010190602001808311610c2757829003601f168201915b505050505090508b565b6000610c708585856001866000604051806020016040528060008152506128f2565b95945050505050565b60015b92915050565b6000805482151560ff909116151503610cad5760405162461bcd60e51b81526004016106ee90613e19565b506000805460ff1916911515919091179055600190565b6000600282604051610cd69190613d74565b9081526040519081900360200190205460ff1615610d405760405162461bcd60e51b815260206004820152602160248201527f4450463a204f5045524154494f4e5f414c52454144595f5245535452494354456044820152601160fa1b60648201526084016106ee565b6001600283604051610d529190613d74565b908152604051908190036020019020805491151560ff19909216919091179055506001919050565b60006001600554610d8b9190613e50565b905090565b604080516060808252601590820152741d1c985b9cd9995c951a58dad95d0818d85b1b1959605a1b60808201523360208201529081018390526000805160206141268339815191529060a00160405180910390a16000828152600860205260409020600201546001600160a01b03163314610e1d5760405162461bcd60e51b81526004016106ee90613e63565b6001600160a01b038116610e655760405162461bcd60e51b815260206004820152600f60248201526e496e76616c6964206164647265737360881b60448201526064016106ee565b604080516060808252601a9082015279151c985b9cd9995c881d985b1a59185d1a5bdb881c185cdcd95960321b60808201523360208201529081018390526000805160206141268339815191529060a00160405180910390a1600082815260086020908152604080832060020180546001600160a01b0319166001600160a01b038616179055338084526009909252822090915b8154811015610fad5784828281548110610f1557610f15613e86565b906000526020600020015403610f9b5781548290610f3590600190613e50565b81548110610f4557610f45613e86565b9060005260206000200154828281548110610f6257610f62613e86565b906000526020600020018190555081805480610f8057610f80613e9c565b60019003818190600052602060002001600090559055610fad565b80610fa581613e00565b915050610ef9565b506001600160a01b038084166000818152600960209081526040808320805460018101825590845291832090910188905551919285169187917fd15524263ae66f75c1e604c47db6085085110f23ef7322b355179ac5e3b0783a91a4604080516060808252601f908201527f5469636b6574207472616e73666572726564207375636365737366756c6c790060808201523360208201529081018590526000805160206141268339815191529060a00160405180910390a150505050565b600061108d8484846000806000604051806020016040528060008152506128f2565b949350505050565b80516001600160a01b031660009081526004602090815260408083209184015190516110c19190613d74565b9081526020016040518091039020546000036112f05760055482516001600160a01b0316600090815260046020908152604091829020908501519151909161110891613d74565b908152602001604051809103902081905550604051806101600160405280600554815260200183600001516001600160a01b03168152602001836020015181526020018360400151151581526020018360a00151151581526020018360c001511515815260200183606001518152602001836080015181526020018360e0015181526020018361010001516001600160a01b031681526020018361012001518152506006600060055481526020019081526020016000206000820151816000015560208201518160010160006101000a8154816001600160a01b0302191690836001600160a01b03160217905550604082015181600201908161120b9190613f01565b506060820151600382018054608085015160a086015161ffff1990921693151561ff0019169390931761010093151584021762ff00001916620100009115159190910217905560c0830151600483015560e0830151600583015582015160068201556101208201516007820180546001600160a01b0319166001600160a01b0390921691909117905561014082015160088201906112a99082613f01565b509050506005600081546112bc90613e00565b9091555081516001600160a01b0316600090815260036020526040812080549091906112e790613e00565b9091555061146f565b81516001600160a01b03166000908152600460209081526040808320918501519051600692849290916113239190613d74565b90815260200160405180910390205481526020019081526020016000209050826040015180156113585750600381015460ff16155b156113895782516001600160a01b03166000908152600360205260408120805490919061138490613e00565b909155505b826040015115801561139f5750600381015460ff165b156113d05782516001600160a01b0316600090815260036020526040812080549091906113cb90613fc0565b909155505b6040830151600382018054606086015160048501556080860151600585015560a086015160c087015161ffff1990921693151561ff0019169390931761010093151584021762ff00001916620100009115159190910217905560e084015160068301558301516007820180546001600160a01b0319166001600160a01b03909216919091179055610120830151600882019061146c9082613f01565b50505b506001919050565b336000908152600960209081526040918290208054835181840281018401909452808452606093928301828280156114ce57602002820191906000526020600020905b8154815260200190600101908083116114ba575b5050505050905090565b60006001826040516114ea9190613d74565b9081526040519081900360200190205460ff161561154a5760405162461bcd60e51b815260206004820152601e60248201527f4450463a204f5045524154494f4e5f414c52454144595f414c4c4f574544000060448201526064016106ee565b60018083604051610d529190613d74565b60006115a4868686600360008089898080601f0160208091040260200160405190810160405280939291908181526020018383808284376000920191909152506128f292505050565b9695505050505050565b6000811515600060019054906101000a900460ff161515036115e25760405162461bcd60e51b81526004016106ee90613e19565b50600080549115156101000261ff0019909216919091179055600190565b6040805160608082526031908201527f70757263686173655469636b65742063616c6c6564202d207374617274696e67608082015270207065726d697373696f6e20636865636b60781b60a08201523360208201529081018290526000805160206141268339815191529060c00160405180910390a1600081815260076020526040812080549091036116ac5760008051602061412683398151915233836040516108fd929190613fd7565b6040805160608082526025908201527f4576656e7420666f756e642c206e6f7720636865636b696e67207065726d697360808201526473696f6e7360d81b60a08201523360208201529081018390526000805160206141268339815191529060c00160405180910390a160405163082e23cd60e11b815260048101839052309063105c479a90602401600060405180830381600087803b15801561174f57600080fd5b505af1158015611763573d6000803e3d6000fd5b5050604080516060808252601f908201527f507572636861736520636f6d706c65746564207375636365737366756c6c79006080820152336020820152908101859052600080516020614126833981519152925060a001905060405180910390a15050565b6000610c708585856002600087604051806020016040528060008152506128f2565b6040518060400160405280600f81526020016e1bdc17d8dc99585d1957d95d995b9d608a1b81525060008060405180602001604052806000815250826000146118b65760405163372db08960e01b8152309063372db0899061185490339088908890600401613cc1565b602060405180830381865afa158015611871573d6000803e3d6000fd5b505050506040513d601f19601f820116820180604052508101906118959190613cf5565b6118b15760405162461bcd60e51b81526004016106ee90613d12565b6119d0565b6001600160a01b038216156118ec576040516318c0c96560e31b8152309063c6064b289061185490339088908790600401613d3f565b604080516000815260208101808352815190209161190c91849101613d74565b604051602081830303815290604052805190602001201461194e5760405163a74d343960e01b8152309063a74d34399061185490339088908690600401613d90565b60405163699d7c3360e01b8152309063699d7c33906119739033908890600401613dc6565b602060405180830381865afa158015611990573d6000803e3d6000fd5b505050506040513d601f19601f820116820180604052508101906119b49190613cf5565b6119d05760405162461bcd60e51b81526004016106ee90613d12565b6040805160608082526012908201527118dc99585d19515d995b9d0818d85b1b195960721b608082015233602082015260008183015290516000805160206141268339815191529181900360a00190a16000600a60008154611a3190613e00565b9190508190559050604051806101200160405280828152602001336001600160a01b031681526020018c81526020018b8152602001611a80611a7b8c611a7690614016565b612e62565b612ed9565b8152602001611a94611a7b611a768c614016565b8152602001611aa6611a7b6000612f06565b81528815156020820152604001611ac2611a7b611a768a614016565b905260008281526007602090815260409182902083518155908301516001820180546001600160a01b0319166001600160a01b03909216919091179055908201516002820190611b129082613f01565b50606082015160038201556080820151600482015560a0820151600582015560c0820151600682015560e082015160078201805491151560ff199092169190911790556101009091015160089091015560405160008051602061412683398151915290611bc19033908490606080825260149082015273115d995b9d081cdd1c9d58dd0818dc99585d195960621b60808201526001600160a01b03929092166020830152604082015260a00190565b60405180910390a1611c6f60405180610140016040528060006001600160a01b03168152602001604051806040016040528060128152602001711bdc17dc1d5c98da185cd957dd1a58dad95d60721b8152508152602001600115158152602001600081526020016000815260200160011515815260200160001515815260200183815260200160006001600160a01b0316815260200160405180602001604052806000815250815250611095565b506040805160608082526025908201527f5075726368617365207065726d697373696f6e2073657420666f7220616c6c20608082015264757365727360d81b60a0820152600060208201529081018290526000805160206141268339815191529060c00160405180910390a1336001600160a01b0316817ffc695dea2478fb938a11068aeedddd7046a5fe655f136e30a325d353fe187a458d604051611d159190613b0f565b60405180910390a360408051606080825260189082015277115d995b9d0818dc99585d1a5bdb8818dbdb5c1b195d195960421b60808201523360208201529081018290526000805160206141268339815191529060a00160405180910390a15050505050505050505050565b6040805160608082526017908201527619d95d135e551a58dad95d141c9a58d94818d85b1b1959604a1b60808201523360208201529081018290526000805160206141268339815191529060a00160405180910390a16000818152600860205260409020600201546001600160a01b03163314611e105760405162461bcd60e51b81526004016106ee90613e63565b6040805160608082526026908201527f4f776e65727368697020766572696669656420666f72207072696365207265746080820152651c9a595d985b60d21b60a08201523360208201529081018290526000805160206141268339815191529060c00160405180910390a16000818152600860205260409081902060030154905133917f978b13d800eb238cb17d97d7a54f23297f312322f36b0f7e9d2096abce23df2b91611ec191815260200190565b60405180910390a260408051606080825260149082015273151a58dad95d081c1c9a58d948195b5a5d1d195960621b60808201523360208201529081018290526000805160206141268339815191529060a00160405180910390a150565b604080516060808252601590820152741c1c9bdd9953dddb995c9cda1a5c0818d85b1b1959605a1b60808201523360208201529081018290526000805160206141268339815191529060a00160405180910390a16000818152600860205260409020600201546001600160a01b03163314611fac5760405162461bcd60e51b81526004016106ee90613e63565b6040805160608082526012908201527113dddb995c9cda1a5c081d995c9a599a595960721b60808201523360208201529081018290526000805160206141268339815191529060a00160405180910390a160408051426020808301919091528183018490528251808303840181526060909201909252805191012080600061203382612f06565b905060006120418233612f3c565b9050336001600160a01b0316857f46def9bc9f2f486533da902625b44be71e5647af0c645e42ec64466c8d4183178360405161207f91815260200190565b60405180910390a36040805160608082526019908201527813dddb995c9cda1a5c081c1c9bdbd98819d95b995c985d1959603a1b60808201523360208201529081018690526000805160206141268339815191529060a00160405180910390a15050505050565b6040805160608082526026908201527f646562756750757263686173655469636b65744e6f5065726d697373696f6e2060808201526518d85b1b195960d21b60a08201523360208201529081018290526000805160206141268339815191529060c00160405180910390a1600081815260076020526040812080549091036121875760008051602061412683398151915233836040516108fd929190613fd7565b604080516060808252602b908201527f4576656e7420666f756e642c2070726f63656564696e672077697468204d504360808201526a206f7065726174696f6e7360a81b60a08201523360208201529081018390526000805160206141268339815191529060c00160405180910390a160006122068260060154612fdb565b60408051606080825260209082018190527f5375636365737366756c6c79206c6f61646564207469636b65747320736f6c64608083015233908201526001818301529051919250600080516020614126833981519152919081900360a00190a160006122758360050154612fdb565b60408051606080825260209082018190527f5375636365737366756c6c79206c6f6164656420746f74616c20737570706c79608083015233908201526002818301529051919250600080516020614126833981519152919081900360a00190a160006122e18383612feb565b6040805160608082526021908201527f5375636365737366756c6c7920706572666f726d656420636f6d70617269736f6080820152603760f91b60a08201523360208201526003818301529051919250600080516020614126833981519152919081900360c00190a160006123566001612f06565b905060006123646000612f06565b9050600061237384848461303b565b905061237f83826130d0565b50604080516060808252601d908201527f4d504320617661696c6162696c69747920636865636b20706173736564000000608082015233602082015260048183015290516000805160206141268339815191529181900360a00190a1604080516060808252601d908201527f416c6c204d5043206f7065726174696f6e73207375636365737366756c000000608082015233602082015260058183015290516000805160206141268339815191529181900360a00190a15050505050505050565b600060018383604051612454929190614094565b9081526040519081900360200190205460ff166124b05760405162461bcd60e51b815260206004820152601a6024820152791114118e8813d4115490551253d397d393d517d0531313d5d15160321b60448201526064016106ee565b6000600184846040516124c4929190614094565b908152604051908190036020019020805491151560ff1990921691909117905550600192915050565b6060600083116125355760405162461bcd60e51b81526020600482015260136024820152724450463a2053544152545f4944585f5a45524f60681b60448201526064016106ee565b6000821161257c5760405162461bcd60e51b81526020600482015260146024820152734450463a204348554e4b5f53495a455f5a45524f60601b60448201526064016106ee565b60055483106125be5760408051600080825260208201909252906125b6565b6125a3613321565b81526020019060019003908161259b5790505b509050610c7c565b600060016005546125cf9190613e50565b60016125db85876140a4565b6125e59190613e50565b11156125fe57836005546125f99190613e50565b612600565b825b90506000816001600160401b0381111561261c5761261c6134f3565b60405190808252806020026020018201604052801561265557816020015b612642613321565b81526020019060019003908161263a5790505b50905060005b82811015612862576006600061267183896140a4565b815260208082019290925260409081016000208151610160810183528154815260018201546001600160a01b03169381019390935260028101805491928401916126ba90613c8d565b80601f01602080910402602001604051908101604052809291908181526020018280546126e690613c8d565b80156127335780601f1061270857610100808354040283529160200191612733565b820191906000526020600020905b81548152906001019060200180831161271657829003601f168201915b5050509183525050600382015460ff8082161515602084015261010080830482161515604085015262010000909204161515606083015260048301546080830152600583015460a0830152600683015460c083015260078301546001600160a01b031660e08301526008830180549190920191906127b090613c8d565b80601f01602080910402602001604051908101604052809291908181526020018280546127dc90613c8d565b80156128295780601f106127fe57610100808354040283529160200191612829565b820191906000526020600020905b81548152906001019060200180831161280c57829003601f168201915b50505050508152505082828151811061284457612844613e86565b6020026020010181905250808061285a90613e00565b91505061265b565b50949350505050565b60006002838360405161287f929190614094565b9081526040519081900360200190205460ff166128de5760405162461bcd60e51b815260206004820152601d60248201527f4450463a204f5045524154494f4e5f4e4f545f5245535452494354454400000060448201526064016106ee565b6000600284846040516124c4929190614094565b600060028787604051612906929190614094565b9081526040519081900360200190205460ff161561292657506000612e57565b6040805180820182526001808252601560f91b6020830152915161294a9190613d74565b9081526040519081900360200190205460ff1615801561298c575060018787604051612977929190614094565b9081526040519081900360200190205460ff16155b1561299957506000612e57565b6001600160a01b038816600090815260046020526040808220905160069291906129c6908b908b90614094565b908152604080516020928190038301902054835290820192909252016000206003015460ff1615612c1c576001600160a01b0388166000908152600460205260408082209051612c15926006929091612a22908c908c90614094565b908152602001604051809103902054815260200190815260200160002060405180610160016040529081600082015481526020016001820160009054906101000a90046001600160a01b03166001600160a01b03166001600160a01b03168152602001600282018054612a9490613c8d565b80601f0160208091040260200160405190810160405280929190818152602001828054612ac090613c8d565b8015612b0d5780601f10612ae257610100808354040283529160200191612b0d565b820191906000526020600020905b815481529060010190602001808311612af057829003601f168201915b5050509183525050600382015460ff8082161515602084015261010080830482161515604085015262010000909204161515606083015260048301546080830152600583015460a0830152600683015460c083015260078301546001600160a01b031660e0830152600883018054919092019190612b8a90613c8d565b80601f0160208091040260200160405190810160405280929190818152602001828054612bb690613c8d565b8015612c035780601f10612bd857610100808354040283529160200191612c03565b820191906000526020600020905b815481529060010190602001808311612be657829003601f168201915b505050505081525050868686866130e5565b9050612e57565b6001600160a01b03881660009081526004602090815260408083208151808301835260018152601560f91b93810193909352905160069392612c5d91613d74565b908152604080516020928190038301902054835290820192909252016000206003015460ff1615612cdb57612c1560066000600460008c6001600160a01b03166001600160a01b03168152602001908152602001600020604051806040016040528060018152602001601560f91b815250604051612a229190613d74565b6001600160a01b03881660009081526003602052604090205415612d0a5750600054610100900460ff16612e57565b6001600090815260046020526040516006919060008051602061414683398151915290612d3a908b908b90614094565b908152604080516020928190038301902054835290820192909252016000206003015460ff1615612d9857600160009081526004602052604051612c159160069160008051602061414683398151915290612a22908c908c90614094565b6001600081815260046020908152604080518082018252938452601560f91b918401919091525160069260008051602061414683398151915291612ddc9190613d74565b908152604080516020928190038301902054835290820192909252016000206003015460ff1615612e4f576001600081815260046020908152604080518082018252938452601560f91b9184019190915251612c15926006929160008051602061414683398151915291612a2291613d74565b5060005460ff165b979650505050505050565b80516020820151604051630e4f36e160e41b815260009260649263e4f36e1092612e9692600160fa1b9290916004016140cd565b6020604051808303816000875af1158015612eb5573d6000803e3d6000fd5b505050506040513d601f19601f82011682018060405250810190610c7c91906140f2565b6000606463c50c9c0260045b60f81b846040518363ffffffff1660e01b8152600401612e9692919061410b565b6040516306cdb05b60e51b815260009060649063d9b60b6090612e9690600160fa1b906001600160401b0387169060040161410b565b60408051606083901b6001600160601b031916602082015281516014818303018152603482019283905263078de1cd60e31b909252600091606491633c6f0e6891612f9191600160fa1b9188916038016140cd565b6020604051808303816000875af1158015612fb0573d6000803e3d6000fd5b505050506040513d601f19601f82011682018060405250810190612fd491906140f2565b9392505050565b6000606463d2c135e56004612ee5565b6000606463dd148693613000600480856132c4565b6040516001600160e01b031960e084901b1681526001600160e81b031990911660048201526024810186905260448101859052606401612f91565b600060646320cc408d613050600480856132c4565b6040516001600160e01b031960e084901b1681526001600160e81b031990911660048201526024810187905260448101869052606481018590526084016020604051808303816000875af11580156130ac573d6000803e3d6000fd5b505050506040513d601f19601f8201168201806040525081019061108d91906140f2565b60006064634e9ba4b5613000600480856132c4565b60008560800151156130f957506000610c70565b8560a001511561310b57506001610c70565b60008660c001511180156131225750428660c00151105b1561312f57506000610c70565b60008660e001511180156131465750428660e00151115b1561315357506000610c70565b6001856003811115613167576131676140b7565b148015613178575061010086015115155b801561318957508386610100015114155b1561319657506000610c70565b60028560038111156131aa576131aa6140b7565b1480156131c457506101208601516001600160a01b031615155b80156131e75750826001600160a01b03168661012001516001600160a01b031614155b156131f457506000610c70565b6003856003811115613208576132086140b7565b14801561324e57506040805160008152602081018083528151902061014089015190926132359201613d74565b6040516020818303038152906040528051906020012014155b80156132ab5750816040516020016132669190613d74565b604051602081830303815290604052805190602001208661014001516040516020016132929190613d74565b6040516020818303038152906040528051906020012014155b156132b857506000610c70565b50600195945050505050565b60008160028111156132d8576132d86140b7565b60ff1660088460048111156132ef576132ef6140b7565b61ffff16901b61ffff16601086600481111561330d5761330d6140b7565b62ffffff16901b171760e81b949350505050565b6040518061016001604052806000815260200160006001600160a01b031681526020016060815260200160001515815260200160001515815260200160001515815260200160008152602001600081526020016000815260200160006001600160a01b03168152602001606081525090565b6000602082840312156133a557600080fd5b5035919050565b6001600160a01b03169052565b60005b838110156133d45781810151838201526020016133bc565b50506000910152565b600081518084526133f58160208601602086016133b9565b601f01601f19169290920160200192915050565b8981526001600160a01b0389166020820152610120604082018190526000906134348382018b6133dd565b60608401999099525050608081019590955260a085019390935260c0840191909152151560e0830152610100909101529392505050565b8b81526001600160a01b038b81166020830152610160604083018190526000916134978483018e6133dd565b91508b151560608501528a1515608085015289151560a08501528860c08501528760e085015286610100850152808616610120850152508281036101408401526134e181856133dd565b9e9d5050505050505050505050505050565b634e487b7160e01b600052604160045260246000fd5b60405161014081016001600160401b038111828210171561352c5761352c6134f3565b60405290565b60006001600160401b038084111561354c5761354c6134f3565b604051601f8501601f19908116603f01168101908282118183101715613574576135746134f3565b8160405280935085815286868601111561358d57600080fd5b858560208301376000602087830101525050509392505050565b600082601f8301126135b857600080fd5b612fd483833560208501613532565b6000602082840312156135d957600080fd5b81356001600160401b038111156135ef57600080fd5b61108d848285016135a7565b80356001600160a01b038116811461361257600080fd5b919050565b60008083601f84011261362957600080fd5b5081356001600160401b0381111561364057600080fd5b60208301915083602082850101111561365857600080fd5b9250929050565b6000806000806060858703121561367557600080fd5b61367e856135fb565b935060208501356001600160401b0381111561369957600080fd5b6136a587828801613617565b9598909750949560400135949350505050565b600080604083850312156136cb57600080fd5b6136d4836135fb565b946020939093013593505050565b80151581146136f057600080fd5b50565b8035613612816136e2565b60006020828403121561371057600080fd5b8135612fd4816136e2565b6000806040838503121561372e57600080fd5b8235915061373e602084016135fb565b90509250929050565b60008060006040848603121561375c57600080fd5b613765846135fb565b925060208401356001600160401b0381111561378057600080fd5b61378c86828701613617565b9497909650939450505050565b6000602082840312156137ab57600080fd5b81356001600160401b03808211156137c257600080fd5b9083019061014082860312156137d757600080fd5b6137df613509565b6137e8836135fb565b81526020830135828111156137fc57600080fd5b613808878286016135a7565b60208301525061381a604084016136f3565b6040820152606083013560608201526080830135608082015261383f60a084016136f3565b60a082015261385060c084016136f3565b60c082015260e083013560e082015261010061386d8185016135fb565b90820152610120838101358381111561388557600080fd5b613891888287016135a7565b918301919091525095945050505050565b6020808252825182820181905260009190848201906040850190845b818110156138da578351835292840192918401916001016138be565b50909695505050505050565b6000806000806000606086880312156138fe57600080fd5b613907866135fb565b945060208601356001600160401b038082111561392357600080fd5b61392f89838a01613617565b9096509450604088013591508082111561394857600080fd5b5061395588828901613617565b969995985093965092949392505050565b60006020828403121561397857600080fd5b612fd4826135fb565b6000806000806060858703121561399757600080fd5b6139a0856135fb565b935060208501356001600160401b038111156139bb57600080fd5b6139c787828801613617565b90945092506139da9050604086016135fb565b905092959194509250565b600080604083850312156139f857600080fd5b613a01836135fb565b915060208301356001600160401b03811115613a1c57600080fd5b613a28858286016135a7565b9150509250929050565b600060408284031215613a4457600080fd5b50919050565b60008060008060008060c08789031215613a6357600080fd5b86356001600160401b0380821115613a7a57600080fd5b613a868a838b016135a7565b9750602089013596506040890135915080821115613aa357600080fd5b613aaf8a838b01613a32565b95506060890135915080821115613ac557600080fd5b613ad18a838b01613a32565b9450613adf60808a016136f3565b935060a0890135915080821115613af557600080fd5b50613b0289828a01613a32565b9150509295509295509295565b602081526000612fd460208301846133dd565b60008060208385031215613b3557600080fd5b82356001600160401b03811115613b4b57600080fd5b613b5785828601613617565b90969095509350505050565b60008060408385031215613b7657600080fd5b50508035926020909101359150565b60006020808301818452808551808352604092508286019150828160051b87010184880160005b83811015613c7f57603f1989840301855281516101608151855288820151613bd68a8701826133ac565b50878201518189870152613bec828701826133dd565b915050606080830151613c028288018215159052565b505060808281015115159086015260a08083015115159086015260c0808301519086015260e08083015190860152610100808301519086015261012080830151613c4e828801826133ac565b50506101408083015192508582038187015250613c6b81836133dd565b968901969450505090860190600101613bac565b509098975050505050505050565b600181811c90821680613ca157607f821691505b602082108103613a4457634e487b7160e01b600052602260045260246000fd5b6001600160a01b0384168152606060208201819052600090613ce5908301856133dd565b9050826040830152949350505050565b600060208284031215613d0757600080fd5b8151612fd4816136e2565b6020808252601390820152724450463a204e6f205065726d697373696f6e2160681b604082015260600190565b600060018060a01b03808616835260606020840152613d6160608401866133dd565b9150808416604084015250949350505050565b60008251613d868184602087016133b9565b9190910192915050565b6001600160a01b0384168152606060208201819052600090613db4908301856133dd565b82810360408401526115a481856133dd565b6001600160a01b038316815260406020820181905260009061108d908301846133dd565b634e487b7160e01b600052601160045260246000fd5b600060018201613e1257613e12613dea565b5060010190565b6020808252601e908201527f4450463a20494e56414c49445f5045524d495353494f4e5f4348414e47450000604082015260600190565b81810381811115610c7c57610c7c613dea565b6020808252600990820152682737ba1037bbb732b960b91b604082015260600190565b634e487b7160e01b600052603260045260246000fd5b634e487b7160e01b600052603160045260246000fd5b601f821115613efc57600081815260208120601f850160051c81016020861015613ed95750805b601f850160051c820191505b81811015613ef857828155600101613ee5565b5050505b505050565b81516001600160401b03811115613f1a57613f1a6134f3565b613f2e81613f288454613c8d565b84613eb2565b602080601f831160018114613f635760008415613f4b5750858301515b600019600386901b1c1916600185901b178555613ef8565b600085815260208120601f198616915b82811015613f9257888601518255948401946001909101908401613f73565b5085821015613fb05787850151600019600388901b60f8161c191681555b5050505050600190811b01905550565b600081613fcf57613fcf613dea565b506000190190565b6060808252600f908201526e115d995b9d081b9bdd08199bdd5b99608a1b60808201526001600160a01b03929092166020830152604082015260a00190565b60006040823603121561402857600080fd5b604080519081016001600160401b03808211838310171561404b5761404b6134f3565b8160405284358352602085013591508082111561406757600080fd5b50830136601f82011261407957600080fd5b61408836823560208401613532565b60208301525092915050565b8183823760009101908152919050565b80820180821115610c7c57610c7c613dea565b634e487b7160e01b600052602160045260246000fd5b60ff60f81b84168152826020820152606060408201526000610c7060608301846133dd565b60006020828403121561410457600080fd5b5051919050565b6001600160f81b031992909216825260208201526040019056feb515f8464a2e9f92f223836cb4d97889b194249a3f5a6bae6b346c6b0ac8fd55abd6e7cb50984ff9c2f3e18a2660c3353dadf4e3291deeb275dae2cd1e44fe05a264697066735822122086e32acc3a82845bb439e78bc37b854fc44a5ea8897aa36e1ea8043ab9c3d9a664736f6c63430008130033b515f8464a2e9f92f223836cb4d97889b194249a3f5a6bae6b346c6b0ac8fd55","linkReferences":{}},"methodIdentifiers":{"ADDRESS_ALL()":"fa1b3cac","STRING_ALL()":"efdcec9c","activePermissions(address)":"a7804d65","addAllowedOperation(string)":"9359c287","addRestrictedOperation(string)":"65c58152","addressDefaultPermission()":"a5fcf162","allowedOperations(string)":"34906a4a","checkPurchasePermission(address,uint256)":"376656be","conditions(uint256)":"26c50007","createEvent(string,uint256,(uint256,bytes),(uint256,bytes),bool,(uint256,bytes))":"cd5468a7","debugPurchaseTicketNoPermission(uint256)":"eb488c1b","events(uint256)":"0b791430","getConditions(uint256,uint256)":"fac66f01","getConditionsCount()":"66195701","getMyTicketIds()":"8fb009d3","getMyTicketPrice(uint256)":"cec21504","isOperationAllowed(address,string)":"699d7c33","isOperationAllowed(address,string,address)":"c6064b28","isOperationAllowed(address,string,string)":"a74d3439","isOperationAllowed(address,string,uint256)":"372db089","operationDefaultPermission()":"f28b9f34","permissions(address,string)":"c8d757fd","proveOwnership(uint256)":"e83627fa","purchaseTicket(uint256)":"b948348c","purchaseTicketSimple(uint256)":"105c479a","removeAllowedOperation(string)":"f9529ee2","removeRestrictedOperation(string)":"fb83bb73","restrictedOperations(string)":"f5589364","setAddressDefaultPermission(bool)":"476a95ad","setOperationDefaultPermission(bool)":"ade0bee4","setPermission((address,string,bool,uint256,uint256,bool,bool,uint256,address,string))":"82dab96e","tickets(uint256)":"50b44712","transferTicket(uint256,address)":"679ebf1a"},"id":0}